:020000041000EA
:1000000000B52F4B212058609868022188439860E2
:10001000D860186158612B4B002199600221596109
:100020000121F02299502849196001219960352059
:1000300000F03EF80222904214D00621196600F02A
:100040002EF8196E01211966002018661A6600F054
:1000500026F8196E196E196E052000F029F8012195
:100060000842F9D1002199601849196000215960AE
:1000700017491848016001219960EB211966A021F8
:10008000196600F00CF800219960134911480160CD
:100090000121996001BC002800D11048004703B538
:1000A000996A04200142FBD001200142F8D103BD2E
:1000B00002B518661866FFF7F2FF186E186E02BDDB
:1000C00000000240000000180000070000035F006D
:1000D00021220000F4000018222000A001010010DD
:1000E0000000000000000000000000000000000010
:1000F0000000000000000000000000003E272A6011
:10010000274800E000202749886006C881F3088856
:10011000104725480068002839D112A40ECC0029C8
:1001200002D000F012F8F9E72049214A002000E04F
:1001300001C19142FCD11F4988471F4988471F4987
:10014000884700BEFDE701C901C29A42FBD3704750
:10015000F2EB8871A4320010C43200106401001068
:1001600090A31AE7C4320010C0000020640A0020E7
:10017000683C00100000042000000420683C0010CF
:1001800000100420001004200000000070470C48FC
:1001900002F034F80047EFF30580C0B2704700006A
:1001A0000002001000ED00E0000000D0640A002012
:1001B000500D002095190010A1080010B51A00106C
:1001C0005756000006005250ABB360535032001037
:1001D00006005250861C0302603200100600525086
:1001E0005422A29D7032001005005250DE65F46862
:1001F000683C00100000000000000000000000004B
:100200000020042013010010C3020010C5020010DA
:10021000C1020010C1020010C1020010C102001092
:10022000C1020010C1020010C1020010C70200107C
:10023000C1020010C1020010C9020010CB02001060
:10024000CD020010CD020010CD020010CD02001032
:10025000CD020010CD020010CD020010CD02001022
:10026000CD020010CD020010CD020010CD02001012
:10027000CD020010CD020010CD020010CD02001002
:10028000CD020010CD020010CD020010CD020010F2
:10029000CD020010CD020010CD020010CD020010E2
:1002A000CD020010CD020010CD020010CD020010D2
:1002B000CD020010CD020010CD020010CD020010C2
:1002C00000BE00BE00BE00BE00BE00BEFFF763FF62
:1002D000103800BEF8B5C04610B5064C2378002B88
:1002E00007D1054B002B02D0044800E000BF0123DA
:1002F000237010BD640A00200000000000310010CF
:10030000044B10B5002B03D00349044800E000BFA4
:1003100010BDC04600000000680A00200031001037
:10032000F0B5DE4657464E4645460F240823E0B555
:1003300085B06C4499462370962600230027FE4D15
:100340009846B6002200009327210133280002F0CE
:10035000D9F93000390000F019FF0C239B462370B7
:1003600043462200009327210133280002F0CAF9F6
:100370003000390000F00AFF4B462370434622004C
:10038000009327210133280002F0BCF93000390026
:1003900000F0FCFE38239A46237043462200009367
:1003A00027210133280002F0ADF93000390000F0B8
:1003B000EDFE42463C2327212370280000923B3B60
:1003C000220002F09FF93000390000F0DFFE5246B3
:1003D000227042460123009227212200280002F0C9
:1003E00091F93000390000F0D1FE4A4622704246B1
:1003F0000123009227212200280002F083F9300017
:10040000390000F0C3FE5A46227042460123009292
:1004100027212200280002F075F93000390000F091
:10042000B5FE4A462270424601230092272122004F
:10043000280002F067F93000390000F0A7FE5246AC
:10044000227042460123009227212200280002F058
:1004500059F93000390000F099FE42463C2327212B
:100460002370280000923B3B220002F04BF9300041
:10047000390000F08BFE5246227042460123009262
:1004800027212200280002F03DF93000390000F059
:100490007DFE4A4622704246012300922721220017
:1004A000280002F02FF93000390000F06FFE5A46A4
:1004B000227042460123009227212200280002F0E8
:1004C00021F93000390000F061FE4A4622704246B0
:1004D0000123009227212200280002F013F93000A6
:1004E000390000F053FE524622704246012300922A
:1004F00027212200280002F005F93000390000F021
:1005000045FE3C23237043462200009327210133FC
:10051000280002F0F7F83000390000F037FE5346AB
:10052000237043462200009327210133280002F064
:10053000E9F83000390000F029FE4B4623704346AD
:100540002200009327210133280002F0DBF830005D
:10055000390000F01BFE5B462370434622000093E7
:1005600027210133280002F0CDF83000390000F0D7
:100570000DFE4B4623704346220000932721013392
:10058000280002F0BFF83000390000F0FFFD2823FA
:100590009A46237043462200009327210133280006
:1005A00002F0B0F83000390000F0F0FD42462C2394
:1005B00027212370280000922B3B220002F0A2F892
:1005C0003000390000F0E2FD52462270424601231D
:1005D000009227212200280002F094F83000390010
:1005E00000F0D4FD4A4622704246012300922721A2
:1005F0002200280002F086F83000390000F0C6FD25
:100600005A462270424601230092272122002800E8
:1006100002F078F83000390000F0B8FD4A46227048
:1006200042460123009227212200280002F06AF8A6
:100630003000390000F0AAFD4146682201232270F3
:10064000280022000091273102F05CF830003900C8
:1006500000F09CFD41466C2322002370280000918D
:100660006B3B273102F04EF83000390000F08EFD70
:10067000682222704246012300922721220028008E
:1006800002F040F83000390000F080FD5246227040
:1006900042460123009227212200280002F032F86E
:1006A0003000390000F072FD2C23237043462200F5
:1006B000009327210133280002F024F8300039008C
:1006C00000F064FD53462370434622000093272127
:1006D0000133280002F016F83000390000F056FD12
:1006E000882323709A464346220000932721013332
:1006F000280002F007F83000390000F047FD8C2395
:10070000237043462200009327210133280001F083
:10071000F9FF3000390000F039FD5346237043469D
:100720002200009327210133280001F0EBFF300065
:10073000390000F02BFD01E0000200204B46237041
:1007400043462200009327210133280001F0DAFFFD
:100750003000390000F01AFD5B462370434622004A
:10076000009327210133280001F0CCFF300039002D
:1007700000F00CFD4B4623704346220000932721D6
:100780000133280001F0BEFF3000390000F0FEFC0C
:10079000C82323709A464346220000932721013341
:1007A000280001F0AFFF3000390000F0EFFCCC234F
:1007B000237043462200009327210133280001F0D3
:1007C000A1FF3000390000F0E1FC5346237043469E
:1007D0002200009327210133280001F093FF30000D
:1007E000390000F0D3FC4B462370434622000093AF
:1007F00027210133280001F085FF3000390000F087
:10080000C5FC5B4623704346220000932721013339
:10081000280001F077FF3000390000F0B7FC4B46AC
:10082000237043462200009327210133280001F062
:1008300069FF3000390000F0A9FC182323709946A5
:1008400043462200009327210133280001F05AFF7C
:100850003000390000F09AFC1C232370434622002C
:10086000009327210133280001F04CFF30003900AC
:1008700000F08CFC4B462370434622000093272156
:100880000133280001F03EFF3000390000F07EFC0B
:1008900005B03CBC90469946A246AB46F0BDC0466A
:1008A000F0B5DE4657464E464546E0B5B94B89B0F1
:1008B0001800B9499B4601F0D1FE0321042000F045
:1008C0006FF90321052000F06BF9002201210420BB
:1008D00000F07EF900220121052000F079F9FFF7F0
:1008E0001FFD04AB0F269C4600276644AB4B092036
:1008F000049300230593049B029300230393029B1C
:1009000040081B6899460823181A0400039BC0344A
:10091000002B01D18030040025000F2308229D43C5
:10092000FF2315431B012401EDB21C4027210123A5
:100930001443357032005846009701F0E3FE9620CC
:100940000021800000F022FC0423984643462B43FC
:1009500032003370272101235846009701F0D2FE60
:1009600096200021800000F011FC01233200272195
:1009700035705846009701F0C5FE9620E4B200217C
:10098000800000F003FC0123320034702721584618
:10099000009701F0B7FE96200021800000F0F6FBE2
:1009A00043462343320033702721012358460097E2
:1009B00001F0A8FE96200021800000F0E7FB012353
:1009C0003470320027215846009701F09BFE962094
:1009D0000021800000F0DAFB4B461C7809239A4680
:1009E000002C63D0012325009C460E339D435346C3
:1009F0001D43EDB22401320027211C433570012331
:100A000058460097E14401F07DFE962000218000C9
:100A100000F0BCFB0423984643462B43320033705E
:100A2000272101235846009701F06CFE96200021F3
:100A3000800000F0ABFB01233200272135705846BF
:100A4000009701F05FFE9620E4B20021800000F0E4
:100A50009DFB01233200347027215846009701F096
:100A600051FE96200021800000F090FB4346234376
:100A700032003370272101235846009701F042FECF
:100A800096200021800000F081FB012334703200A9
:100A900027215846009701F035FE9620002180005E
:100AA00000F074FB4B461C78002C9BD1029B043356
:100AB0000293039B012B08D0029B1B681800039331
:100AC00002F09AF90123039319E7FA200824C000E1
:100AD00000F0A8FB0123320034702721584600970C
:100AE00001F010FE96200021800000F04FFB0C2347
:100AF0003200337027210B3B5846009701F002FE6D
:100B000096200021800000F041FB01233200347068
:100B100027215846009701F0F5FD9620002180001E
:100B2000103400F033FB0123320027213470584683
:100B3000009701F0E7FD96200021800000F026FBE1
:100B40001C233200337027211B3B5846009701F0CD
:100B5000D9FD96200021800000F018FB012332000F
:100B6000272134705846009701F0CCFD96200021D3
:100B7000800000F00BFB059B049A023308320593BA
:100B800004920A2B00D1B1E613681800029302F018
:100B900033F9B0E600020020A08601009431001075
:100BA000094A830094464022634410B51C68C00083
:100BB0006240C02414408022520113431C60034B46
:100BC0009C466044416010BD04C0014000400140AB
:100BD0000A4B80009C4604236044002901D0082170
:100BE0000C23002A00D10B00026853400C221A404B
:100BF00080235B01184302607047C04604C0014077
:100C0000F8B5CE464746914680B5EFF3108772B6E9
:100C1000124E3368002BFCD0BFF35F8FCB08C55C4E
:100C20000724C218280001230C409446E0401A0013
:100C30000240904603420DD1A34062462B431370FD
:100C4000BFF35F8F4346336087F310880CBC904638
:100C50009946F8BD484600F02FFFC0462C0100D051
:100C60000021044B044ABFF35F8F02C39342FAD1C1
:100C70007047C046000100D0800100D0044A1078BF
:100C8000431CDBB2172B00D9102313707047C046EA
:100C900088010020024B18688007C00F7047C046CB
:100CA00000C0064083680B4810B584466144624426
:100CB000090112019A18591854684B6801209C4286
:100CC00001D802D00020C0B210BD12680B689A4251
:100CD000F9D8F7E7FFFFFF0F40BF00200021704762
:100CE000F0B557464546DE464E46E0B583B01F0098
:100CF0000FAB1B780E9C050092460193002C0DD182
:100D00000268947B002C56D0116863008C461B1936
:100D10006344033B5B789373002B54D0AA68E3B21F
:100D2000944652469B46384B2E68E3181B01634499
:100D30001A600C9A5F609A600D9ADA60D023802264
:100D40001B0612035A6163001B19033B98460022DD
:100D5000336843449A705A701A70737B9946002B1B
:100D600017D05A461900B06873689847326800284F
:100D70002BD14346D1184B4658465B004B44033BAE
:100D8000D31898704046125C002A00D05A704B4627
:100D90000B705B46737352463B00287D00F05EFB90
:100DA000061E02D0019B002B26D0109B002B28D0C2
:100DB00020001E7000E0002003B03CBC9046994625
:100DC000A246AB46F0BDD373A8E74B465B004B444D
:100DD000033BD1188C464146484651188870D35C75
:100DE000002B00D04B705B46624613704B462000D0
:100DF0007373A145E0D1CEE75946286800F08CFD19
:100E0000D3E72000D8E7C046FFFFFF0FF0B5DE466E
:100E10004E46574645460023E0B58DB00A93714BC8
:100E20008200D3580B90994600239B464B4607936C
:100E300000F0B4FA079C06000F006268EFF310851B
:100E400072B61368002BFCD022000794BFF35F8FAB
:100E50002468637B9946002B00D170E09268624B56
:100E600090464B441B01984443461A685B68100047
:100E70001900801BB941002968DD0B9800F0EEFADB
:100E800000230026984600279A46079C6368BFF314
:100E90005F8F5A461A6085F310885346002B08D19D
:100EA0000028C5D10DB03CBC90469946A246AB4641
:100EB000F0BDD023802280211B06920309035A61D2
:100EC00099619A610A9B414618024B461843D047E4
:100ED000089009916268EFF3108572B61368002BD1
:100EE000FCD00794BFF35F8F0899099A002A49DB69
:100EF000114303D0079B1B69002B5ED1079B1B6826
:100F0000DA7B002A07D051008A1819688C464946B6
:100F10006244033A51704A46DA734B46079A013BE2
:100F2000D168CA5C0132CA545B46079A13615368A0
:100F3000BFF35F8F5A461A6085F3108878E7002365
:100F40000026984600279A4600209EE7002902D1F5
:100F5000002800D091E70121200000F03FFC43462B
:100F60001E685F689B68079A9A464346DB68984606
:100F7000D3684B44013B1B780A931B020343136164
:100F8000002082E72369002BB8D033003C005B1AB5
:100F900094411A002300A74219D89F421BD05946FA
:100FA0000491012103914946029141460191514624
:100FB00007980091FFF794FEB6E700F0EFF9089A62
:100FC000099B06000F0092197B419942E5D9012245
:100FD0005242D317E3E79642E1D901225242D31796
:100FE000DDE7C046000B0020FFFFFF0FF8B55746B6
:100FF0004E46DE4645469146E0B504009A464268B4
:10100000EFF3108872B61368002BFCD0BFF35F8F2C
:101010002668B57B002D40D06F0033687F19033FF1
:10102000DB195B78B373002B00D1F373374B0022CD
:10103000E918A36809019C464B4661440B6053467E
:101040004B60334BCA608B60D02380211B060903A1
:1010500059613368DB199A705A701A70737B9B461A
:10106000002B35D02A001900B068736898473268A1
:10107000002820D05B4658465B005B44D719033BF1
:10108000B870D118D35C002B00D07B705B460D701C
:1010900073735D451DD0002626E06368BFF35F8F44
:1010A0001D6088F31088012040423CBC9046994660
:1010B000A246AB46F8BD5B465B005B44033BD318DE
:1010C0009D70D119D25D002A00D05A705B460B701A
:1010D00075734A465346207D00F0C0F9061EDAD0EB
:1010E0002900206800F018FCE36862685B19013B86
:1010F0001B78BFF35F8F0021116088F310880020F8
:10110000002ED2D118022843CFE7C046FFFFFF0FC1
:10111000D90C001070B5184C2368002B00D070BD9E
:10112000032000F02FF9032000F0FAF913490320FF
:1011300000F04EF9182001F087F90500FFF79EFD39
:101140000F4B2A009C46604480000E4968601020C6
:1011500000F04EFA10212860102001F079F90121E9
:10116000A860102001F074F903232B75064BE8608A
:10117000DD602560D3E7C046EC0A00200D0E0010AC
:1011800040000034A50C0010000B0020F8B504004E
:101190000D0000F003F902000B00A4185D41A94204
:1011A0002FD82CD006267642F71736196F41AF425A
:1011B0002ED90026002700F0F1F832003B00121A69
:1011C0008B41002B07DC04D02900200000F0F0F850
:1011D000F8BD002AF8D0114B320018683B00FFF729
:1011E00005FF0028F0DB38000D4A536A984204D806
:1011F000916A8E42E8D99842E6D120BFF5E7A04235
:10120000D0D901246442E51707267642F717D2E7C2
:10121000AF42D0D1A642CCD8CDE7C046EC0A0020E0
:1012200000400540F8B5040000F0B8F8FA220600C6
:101230000F00200000230021920001F0A3F8801984
:10124000794104000D008F422FD82CD0062676421B
:10125000F71736196F41AF422ED90026002700F04C
:101260009DF832003B00121A8B41002B07DC04D0A2
:101270002900200000F09CF8F8BD002AF8D0114B9E
:10128000320018683B00FFF7B1FE0028F0DB3800A1
:101290000D4A536A984204D8916A8E42E8D998421E
:1012A000E6D120BFF5E78642D0D901246442E51794
:1012B00007267642F717D2E7AF42D0D1A642CCD864
:1012C000CDE7C046EC0A002000400540F0B5D64608
:1012D0004F464646C0B5EFF305833F221340180042
:1012E0001038EFF3108C72B6204D2A68002AFCD01B
:1012F000BFF35F8F0122110081401D4C884661635E
:101300001C4917000E788A463100C1400F400A423E
:1013100015D019498200646A51588C4219D3174B71
:10132000D25843469E4353461E70BFF35F8F00233F
:101330002B608CF31088002A06D0904704E0BFF39E
:101340005F8F2F608CF310881CBC90469946A24694
:10135000F0BD0B4A9B00904643441A681A60BFF3E5
:101360005F8F00232B608CF31088EDE7280100D0FD
:1013700000400540220B0020100B0020B40A002082
:10138000D03F054010B50100024A0348FFF738FC82
:1013900010BDC046BC310010200B0020034B596A21
:1013A0000A00986A596A8A42FAD17047004005409B
:1013B000064A536A9942FCD807D1044B02E05A6AA4
:1013C000914202D19A6A8242F9D3704700400540A7
:1013D00070B504000D00EFF3108672B61A4A136858
:1013E000002BFCD0BFF35F8F002D1BD0200000F03E
:1013F0004FFD164981420AD0200000F051FD012125
:10140000200000F033FD0123A340114A1360114B6B
:10141000A400E550BFF35F8F00220B4B1A6086F3E8
:10142000108870BD0B4BA200D5500122A2400A4982
:1014300020000B7893430B70044900F05BFD002102
:10144000200000F013FDE5E7280100D0CD120010C8
:1014500038600540B40A0020220B0020F0B5CE46CB
:10146000474680B52A4C616A0D00A66A616AA942A6
:10147000FAD18B4207D804D001200CBC9046994683
:10148000F0BDB242F8D9EFF3108872B6214C216852
:101490000029FCD0BFF35F8F012585401C4C1E4EF8
:1014A0006563E9B28C463178894661464F463943D7
:1014B0003170011D89000A51184980004350216A8A
:1014C000002029420CD02000616A0C00876A416A22
:1014D000A142FAD18B4202D80AD1BA4208D90020DF
:1014E000BFF35F8F00220B4B1A6088F31088C4E7AC
:1014F000074B4F461D625D6363469F430120377073
:10150000BFF35F8F0022034B1A6088F31088B4E7A3
:1015100000400540280100D0220B0020100B0020C5
:1015200010B5EFF3108472B60A490B68002BFCD09B
:10153000BFF35F8F01238340074A08481362027894
:101540009A430270BFF35F8F00230B6084F310880F
:1015500010BDC046280100D000400540220B0020ED
:10156000024B9C4661448900016070474000003492
:1015700010B50400FFF782FB01002000FFF7F0FF29
:10158000BFF35F8F10BDC04670B505000E0014009C
:10159000002924D0002A24D080686B6898472968E5
:1015A00000280ED063001B197200033B9219CB1860
:1015B000033A9E7088188A5C002A14D104703000A7
:1015C0000EE073009B196200033B1219CB18033A1B
:1015D0009C7088188A5C002A00D05A70067020001F
:1015E00070BD0800FCE75A7004703000F8E7C04690
:1015F000F0B5C64605000F0000B510210120160009
:1016000000F026FFEBB204000373032147602800BB
:10161000984600F01DFF002363730133A373434614
:10162000FF21E373FE232060A66029402B4206D0F1
:10163000421CFD3B0133137003328B42FAD34B0043
:1016400059180023401803384370200004BC90460A
:10165000F0BDC046F8B5CE46474606000C0080B542
:10166000002907D04D0003686D18033D5A195778BB
:10167000002F04D120000CBC90469946F8BD79009B
:10168000C91903398846434459788946002159705D
:10169000517073683A0021008068984733680028C9
:1016A00014D042469A18947059195B5D002B00D0F3
:1016B00053700F70270049463000FFF7CBFF390009
:1016C00002003000FFF760FF0400D3E742464146C6
:1016D0005D19AF709A185B5C002B00D06B701470B2
:1016E000E9E7C046F0B557464546DE464E46E0B50A
:1016F0000D006B0001685B19DF1E0400C85D83B03C
:101700000192CA1900284CD043001B18033BCB1888
:101710005E78B446002E16D1019E002E3ED1E67BA7
:10172000002E04D073009B19CB18033B5D70E5734A
:1017300000282FD10023537003B03CBC904699463B
:10174000A246AB46F0BD72006244033A89184A785B
:10175000904600224A7091465A70010032002000E3
:10176000FFF712FF43468246002B07D05B0021683B
:101770004344033BCB185A78002A16D142465146BF
:101780002000FFF701FF2168019BCA19002BC6D07A
:101790000028CFD043001B18033BCB1800219970C1
:1017A000C8E7019B002BC5D1B9E75000801803386A
:1017B00009184878834648464870587041462000CA
:1017C000FFF7E2FE594680462000FFF743FF4146FF
:1017D00002002000FFF7D8FE8046CFE7F0B54E4666
:1017E0004546DE465746E0B5467B04007500006876
:1017F000AD19033D83B00191415D421900294ED0DE
:101800004B005B18033BC3185F78BC46002F18D110
:10181000019D002D40D1E57B002D04D06B005B19AC
:10182000C318033B5E70E673002931D100233000FA
:101830005370617303B03CBC90469946A246AB46D8
:10184000F0BD7A006244033A801842789346002241
:10185000427091465A7020003A00FFF795FE5B46B1
:101860008046002B07D05B0021685B44033BCB180C
:101870005A78002A17D15A4641462000FFF784FEC5
:10188000019B010020684219002BC4D00029CDD053
:101890004B005B18033BC31800209870C6E7019B00
:1018A000002BC3D1B7E750008018033809184878D7
:1018B000824648464870587059462000FFF764FE3B
:1018C00053468346002B07D05B0021685344033BFB
:1018D000CB185A78002A06D1594652462000FFF705
:1018E00053FE8346C7E7500080180338091848465E
:1018F0004F784870587051462000FFF745FE390078
:1019000081462000FFF7A6FE494602002000FFF7AF
:101910003BFE8246E0E7C04670B5040000292CD0AB
:10192000437B8B422ED005684800401803382818A6
:101930008278002A21D053009B18033BEA5CEE1802
:101940008A4202D11BE0002A08D053009B18033BB7
:10195000EB185A788A42F6D142785A700023002256
:10196000837043702000FFF7BDFE617B0200200002
:10197000FFF70AFE6073012000E0002070BD43788D
:101980003370EBE700221900FFF7ACFE6073012013
:10199000F4E7C0462B4B2C4A70B51A602B4A2C4BEF
:1019A0002C491A6010008B689843FBD12A4C2B4BB2
:1019B0009C4209D2013B1D1BAD080135AD002D191C
:1019C00008CC9847AC42FBD100F094F8244A204B55
:1019D0001A60204A9368DB018033FBD14022214BFF
:1019E000214C9A675A671A67DA66204B9C420BD2E1
:1019F000013B1D1BED080135ED002D1920000834B9
:101A0000FFF7B6FDAC42F9D1194C1A4DA168C022BE
:101A1000280000F02FFDA560FFF722F900F0AAFBD7
:101A2000FFF778FB144C154B9C4209D2013B1D1B60
:101A3000AD080135AD002D1908CC9847A542FBD162
:101A400070BDC04600E00040BFCDFFFFFE7F3C0000
:101A500000F0004000C00040500A0020600A002052
:101A6000FFFFFF0100F00140480A0020500A00205B
:101A700000ED00E000000020600A0020640A002061
:101A8000094A03001068002805D00849C3188B4292
:101A900007D21360704706480449C31810608B4290
:101AA000F7D301204042F5E7F80A002000000420A7
:101AB000500D002000BEFDE70FB400B5084883B00C
:101AC00000F0AEFD049B002B07D005A91800019182
:101AD00000F074FB034800F0A3FD00BEFDE7C04624
:101AE000E0310010F031001010B50148FFF7E4FFBD
:101AF000F431001030B50C2083B000F071F9FFF71D
:101B0000C9F800280ED09A4B9A4A1A605A609A6017
:101B1000DA601A615A619A61DA611A62964A5A6207
:101B200003B030BD954CA06700F062F90122944BE0
:101B30001A60636C012BFCD10322924B1A608F4A0E
:101B4000936B012BFCD1C0228F4B92011A608F4BFB
:101B50008F491A6010008B689843031EFAD1022443
:101B600001218C4A8C480633009400F055F9052376
:101B70008A4A01218A48009400F04EF9894B5A683C
:101B8000FF2A02D8802252005A608022784C7D4B76
:101B900021691201834D1A60002905D0606900F0A7
:101BA0005BFB01300138FDD1E0217E4B02201A6839
:101BB0001140802252012A431160196848400321D4
:101BC0000140116004219A681142FCD080228021DA
:101BD00092012A4309011160802252005A60724B1F
:101BE0002361724B5968FF2900D85A6003226F485D
:101BF000634B01211A60020093681942FCD0E02572
:101C000013681D4080235B0103431D6012684A4036
:101C10000321114019600221644A93681942FCD0E3
:101C2000802380219B010343090119608021604BBF
:101C30004900516063615F4B5A68FF2A00D85960C0
:101C400080225D4BE16912015A4D1A60002905D0CE
:101C5000606900F001FB01300138FDD1E0225549F7
:101C60000B681A4080235B012B431A60802380227B
:101C70009B012B4312011A6080223E4B52004A60A6
:101C8000E3614E4B5968FF2900D85A6080224C4BC3
:101C9000216A1201494D1A60002905D0606900F0DF
:101CA000DBFA01300138FDD1E02244490B681A40CB
:101CB00080235B012B431A60802380229B012B43EE
:101CC00012011A60802380225B004B60294BD202F4
:101CD00023623C4B5968914200D25A6080223A4BB1
:101CE000616A1201374D1A60002905D0606900F061
:101CF000B3FA01300138FDD1E02232490B681A40B5
:101D000080235B012B431A60802380229B012B439D
:101D100012011A608023DB024B60174B63622B4B6E
:101D20005A68FF2A02D8802252005A608022284B2B
:101D3000A1691201254D1A60002905D0606900F0E3
:101D40008BFA01300138FDD1E02220490B681A409E
:101D500080235B012B431A60802380229B012B434D
:101D600012011A6080235B004B60114BA361D7E620
:101D7000C40A0020006CDC021BB700000080004099
:101D80003CB0004030B0004000E0004000F00040B7
:101D900000C00040002F68590080024000389C1CA1
:101DA00000C0024030800040001BB7003C80004073
:101DB000405973075480004054B000406080004098
:101DC00060B000406C8000406CB000404880004033
:101DD00048B00040014B8000C0587047C40A002042
:101DE0008023024A9B000343D36270470080054072
:101DF000AA23064A1B0113602F230549D360054B14
:101E000019605368002BFCDA7047C046004002405E
:101E100000B0FA0000600240F8B51D0006AB1E7865
:101E200001235B42436000230400836001600C20B7
:101E3000170000F011FA4101091A8B01591AC90063
:101E400009188901380000F007FAC021231D890113
:101E500019432123A0600B602268002AFCDA0823C2
:101E60002D0436032E43E6600B60F8BD012383404A
:101E7000002904D0034A1360034A13607047034AE1
:101E80001360FBE780E200E000E100E080E100E0B9
:101E9000024B10309B688000C058704700ED00E096
:101EA00070B50D00EFF3108672B60F4A1368002B61
:101EB000FCD0BFF35F8F0D4B10309B6884001B5923
:101EC0000B4A934203D09D4201D0FFF70DFE074B12
:101ED0009B681D51BFF35F8FBFF35F8F0022024BE2
:101EE0001A6086F3108870BD240100D000ED00E078
:101EF000CD020010F0B5DE4657464E464546E0B5E9
:101F00000C0083B0EFF3108A72B65F4A1368002B9F
:101F1000FCD0BFF35F8F1022914681444A465B4B51
:101F200096009B689D595A4B98469D4205D0A54204
:101F300016D0584FEB1B2F2B14D9544B9B689D5137
:101F4000BFF35F8FBFF35F8F00224F4B1A608AF39E
:101F5000108803B03CBC90469946A246AB46F0BD03
:101F60001D00EAE7012383409B465A464A4B1B6803
:101F70001A4000925A46494B1A60BFF35F8FFEF732
:101F80000AF90190002803D0814501D0FFF7ACFD8C
:101F90000123290099438B68A34269D00A0007E016
:101FA00043001B189B00FB189868A04211D01A0030
:101FB000062010560028F3DA009B002B05D05A4665
:101FC000374B1A60344B1A60B7E75A46334B1A60E6
:101FD000B3E706201856002822DB420011188900BA
:101FE0007C188846A1689960E179D971062161560B
:101FF0009971A1797F292BD8A488F91A6405241531
:1020000044440919E0240905490D2402214399801B
:102010001218244B9200BF181A781870BA71CBE7C7
:102020000198002817D1FF3090711F4890801D4AF9
:10203000CF1B1078BF109871BB00DB1919015B181A
:1020400019025B1819045B185B00DB191370B3E706
:10205000BD210902DBE7154A1549D21A083A500298
:10206000400D01439980134952080A43DA80A3E7DF
:10207000062008560B000028AFDA019A002AEAD1A0
:102080000B004546D3E7C046240100D000ED00E038
:10209000CD0200108C01002000E100E080E100E0B2
:1020A00080E200E0210B002000BDFFFFC601002000
:1020B00000F0FFFF00F8FFFFF8B50125040005431D
:1020C000FEF769F8EFF3108672B6244A1368002B06
:1020D000FCD0BFF35F8F224F8000E11B89108A0084
:1020E00052181301D2181302D2181304D3181D4A20
:1020F0005B005B1891680958A9421CD00622BA56A9
:1021000093421CD01222BA56934222D01E22BA56B3
:10211000934220D02A22BA5603219A4210D0124A62
:1021200011781370A171BFF35F8F00220B4B1A60FF
:1021300086F31088F8BD92680C491150EFE7002132
:102140004A005218FF219200BA18917108499180F3
:10215000E5E70121F4E70221F2E7C046240100D0BF
:102160008C01002000ED00E0210B0020CD020010CA
:1021700000BDFFFFF0B500220324FF2780262000CA
:102180003D00094B11009C461040C0008540A14312
:1021900061440B680132AB43350085402B430B6033
:1021A000202AECD1F0BDC04600E400E010B50028C4
:1021B00000D110BD00F026FAFBE7C04610B5094A71
:1021C0000300146884B0002C08D001220091064856
:1021D000524203A9A047012004B010BD00F020FA2C
:1021E0000020F9E7FC0A0020AD210010014804217D
:1021F000014B1847E00100201D220010142310B5E8
:102200000100188804331B88984710BD162310B5A9
:102210000100188802331B88984710BDF0B5C646E8
:1022200000B5002916D0142304000125984618276C
:10223000890046184346216818883B88984701C49E
:10224000431E984140420540A642F3D1280004BCF9
:102250009046F0BD0125F9E7134A936F9B0813D20E
:1022600010665166002905D0FFE7FFE7FFE7516FD1
:10227000106F704704B5002801D00020C04300F063
:1022800027FF002104BDC046936F5B08FDD3F0B566
:10229000946ED56E576F166FFFF7E2FF9466D566A2
:1022A00057671667F0BD0000000000D0132370B51B
:1022B0001D78012D10D00BDD2448FFF7A7FF244C1B
:1022C00001008022200000F0D5F8022D01D070BD61
:1022D0001F4C204AA264FAE72E001D4C1D4AA30899
:1022E0005B421E401D422FD0330022602020B100EF
:1022F0006118801B0A604A608A60CA600A614A618C
:102300008A61CA610A624A628A62CA620A634A636D
:102310008A63CA630A644A648A64CA640A654A654D
:102320008A65CA650A664A668A66CA660A674A672D
:102330004008102803D18A67CA67A264C7E71E3322
:102340009B00E250A264C2E70023CFE753440000A1
:10235000240B00205923001007B5604601880A0AA3
:102360000230DF2AFAD1C9B2820804D30288408839
:102370000004104300E00068014A5050039007BD7C
:10238000240B002051434343C9188C46110C83B2DF
:102390004B4310B4040C614392B280B25043624389
:1023A0001C041B0C001910BC59411304120CC0185A
:1023B0005141614470470000132310B512481C7846
:1023C000FFF724FF0100012C0AD003DD80220F4813
:1023D00000F050F80E48FFF711FF0E4B186010BDCB
:1023E0000A4C5422200000F045F80B4B6365A365AE
:1023F000E36523666366A366E36623676367A36793
:10240000E3672362E361E5E753460000240C002004
:102410004C330000240D00201D24001007B5604639
:1024200001880A0A0230DF2AFAD1C9B2820804D32D
:10243000028840880004104300E00068014A5050C0
:10244000039007BD240C002010B500F0E9F910BD81
:1024500010B500F0ABF910BD01480421014B18473D
:10246000F00100201D220010014B1B6818470000DE
:10247000F0010020014B5B6818470000F0010020CC
:10248000F8B54746CE460D0080B516000700002A75
:1024900020DD4B1E98461A4B002400209946002C44
:1024A0002BD043461B5D0D3B5A425341DBB22A5DA4
:1024B0000A2A13D00134A642F1DC864203DD311A28
:1024C0003B6828189847AD19013D2B780D3B5A42BF
:1024D00053413B740CBC90469946F8BD002BE9D1A2
:1024E000A04203DA211A3B6828189847484602217F
:1024F0003B68013498472000DDE73B7CD7E7C046C6
:10250000A0320010F0B557464546DE464E46D02371
:10251000E0B51B061C68374B83B007000D001800A0
:1025200001A990469A4600F0DBFD8146002807D1BC
:10253000019B9C4204D0504600F0DAFD01239946ED
:102540006B1C03D1380000F057FC05002A4B1C68B7
:10255000002C2FD00A23294E9B4602E0E468002C71
:1025600028D02268002AF9D03368002B01D0A3427A
:10257000F4D1637C002B2AD02A0039002000FFF719
:102580007FFF4346002BE9D06B465A461A71637CA5
:10259000002B20D0237C002B26D00121236801A80A
:1025A00098476B461B790D3B5A4253412374E468AC
:1025B000002CD6D14B46002B12D1681E8541E8B2C3
:1025C00003B03CBC90469946A246AB46F0BD2900FC
:1025D00038009047D5E70121236801A89847BDE757
:1025E000504600F06DFDE8E7022105482368984752
:1025F000D7E7C046480A0020F00A0020F40A00206D
:10260000A032001010B582B06B4604000022D81D25
:1026100001210470FFF776FF200002B010BDC04614
:1026200070B5040000F0E8FB012201000500200065
:10263000FFF768FF084B1C68002C06D06368002B6E
:1026400005D09847E468002CF8D1280070BDE468F4
:10265000002CF3D1F9E7C046F00A0020F8B5254B6D
:102660000500C31A5A42534107225B429343224A50
:1026700010331360214A0E00214913601C008A6840
:102680009443FBD1652203212B682C71DC661A6010
:102690002332DC6305209C639950FFF79BFB070006
:1026A00070083100C019FFF7D7FD06004000052172
:1026B0008019FFF7D1FD0422331A9C462B68DC6693
:1026C00019684A4006211140802252011A431160C4
:1026D00062466146D8611A6201220F2900D90A09AF
:1026E000A0215A50012231003800DA66FFF7B4FD0C
:1026F000F8BDC0460002002000E0004000F00040AD
:1027000000C00040F0B557464E464546DE46E0B5AF
:1027100083B00D000CA90F78002104680600E16663
:1027200001316560E166002B3AD00120591E7840E6
:1027300089464102802080467C38019184460021F0
:102740000025002903D13579681E8541AD0200209E
:102750008246494501D101988246505C0543504666
:102760000543256103E06046256F284213D14046AA
:102770002558606D0028F6D0002D13D0EB0711D43A
:102780002B070FD50800377103B03CBC9046994623
:10279000A246AB46F0BD01318B42D1D11800F2E721
:1027A0000020F0E702204042EDE7C046030010B5EC
:1027B0000A0003490868190000F004F810BDC0467B
:1027C0000802002010B5514300F034F8041E0ED06A
:1027D0000300083B5A6803239A43043A242A15D875
:1027E0000300132A05D800221A605A609A6020005C
:1027F00010BD00210833016041601B2AF3D98160BC
:10280000C160242A06D003001033ECE70021FFF753
:102810002BFEECE70300016118334161E3E7C0469A
:1028200010B5034B0100186800F004F810BDC04655
:1028300008020020F0B54E464546DE465746E0B554
:102840000D000B35060083B0162D22D8102900D9B3
:10285000B2E000F0AFFA102502201823CB4FFB188E
:102860001A005C68083A944200D1B5E0032362681C
:102870009A431300E268A168CA6091600122E318DC
:10288000596830000A435A6000F09CFA2000083072
:1028900095E007239D4300D58EE0A94200D98BE047
:1028A00000F088FAFC235B009D4200D2A5E1680A93
:1028B00000D18BE0042800D978E138239846A80994
:1028C00080443930C100B14F79184C680839A142B1
:1028D0000ED003239C4604E0002ACBDAE468A14230
:1028E00006D06246636893435A1B0F2AF4DD4046C4
:1028F0003A003C690832944200D178E003236168D1
:10290000994389460B00491B0F2900DD79E17A6163
:102910003A610029B2DA80229200914500D30EE19B
:102920005909DA0801238B40D2007968D2190B4388
:1029300091687B60E260A1609460CC6001218210AC
:102940009140994259D80B4205D103229043490046
:1029500004300B42FBD003239846C3009946B94488
:10296000CC4682466346DC68A44507D12AE1002AAA
:1029700000DB33E1E468A44500D123E1424663680B
:1029800093435A1B0F2AF2DD01208046611905434B
:102990006560A068E5680837C560A86040461043D8
:1029A000F960B9604860CF6030008F60E25000F09D
:1029B00009FA2000083002E00C230020336003B045
:1029C0003CBC90469946A246AB46F0BD80213F23D1
:1029D00040209846890076E7DC680230A34200D0A8
:1029E00044E73A003C690832944200D086E701216E
:1029F0007B68821091409942A5D90323BC68626824
:102A00009A439146954203D8531B0F2B00DD88E073
:102A100023004B445E4A01935E4B93461B68126849
:102A2000EB18013200D13BE15B4A944663441B0B37
:102A30001B0300933000009900F0CCF9030080469E
:102A4000013300D1F8E0019B834200D9F2E0534BFF
:102A500019009A460968009B8C46514663440B60F6
:102A600001991A00814200D150E15B461B68013395
:102A700000D155E1434601995B1A9A1853461A60F2
:102A80000723424641461A400192194200D111E102
:102A900008239846881A424B0099804441449B1A67
:102AA0005B1A1B051B0D0091300019009B4600F0BE
:102AB00091F9431C00D14FE14346C01A03005B4427
:102AC0000093534652461B6801215B441360424603
:102AD0004046BA60009A0A434260BC4200D123E1FA
:102AE0004A460F2A00D821E107200C3A8243606849
:102AF0000140052011436160A118486088600F2AD9
:102B000000D934E142464446526826490868984252
:102B100000D20B6024490868984200D38EE00B6015
:102B20008CE00122290013431143651961603000D4
:102B3000BD606B6000F046F9200008303FE75A0A9C
:102B4000042A71D9142A00D9C4E011005C325B3127
:102B5000D20008235B429C46BA18944463469A68A4
:102B600003239846944500D19DE04346516899431C
:102B7000494502D992689445F7D1D3689C467B6851
:102B80006146A260E1608C60D460D7E63806002020
:102B9000400A0020B00A00200F100000800A002028
:102BA00008100000A80A0020AC0A0020142852D9FE
:102BB000542800D996E06E239846280B80446F3045
:102BC000C10080E608239B46073BDC449B46DA4471
:102BD00043465246134200D0C4E64CE00122E318BB
:102BE000596830000A435A60E368A268D3609A606B
:102BF00000F0E8F820000830E1E62B00E808083390
:102C00002CE6012360191D43656078613861C2605C
:102C100082601A004B460A4342603000E15000F0E7
:102C2000D1F820000830CAE69A091100393238314B
:102C3000D2008EE7BC4260D0BC68626803239A432E
:102C4000531B954202D80F2B00DD6AE7300000F0DD
:102C5000B9F80020B3E65B23984680445C30C1009D
:102C600031E608235B429C46E1444B469B680138B1
:102C70004B4500D098E043460342F2D17B688B433A
:102C80007B604900994200D9B7E6002904D1B4E637
:102C9000042294464900E2440B42F9D050465CE6D7
:102CA00010330093C6E68910023B8B4079680B43D2
:102CB0007B6065E7009B300043445B421B051B0DB6
:102CC00019009B4600F086F8431C00D0F4E6002370
:102CD0009B46F6E6542A2BD81A0B11006F326E3140
:102CE000D20036E7AA235B0098422BD8DD3B9846FA
:102CF000E80B80447830C100E5E52C4B009A9A46F9
:102D00001B689C46534662441A60AEE6090500D033
:102D1000ABE6009ABC684A4401310A436260F4E6BB
:102D20005B4642461A60ABE64446EEE641608DE7FC
:102D3000AA2149008A4224D8DA0B1100783277316F
:102D4000D20006E71A4B984224D87C239846A80C58
:102D500080447D30C100B6E5009A019B944642460E
:102D6000083B63449B1A009300239B46A9E621007D
:102D70003000083100F0BCF85346BC681B6862683C
:102D8000C3E60B498A420BD89A0C11007D327C3184
:102D9000D200DEE6FE217E237F209846890092E560
:102DA000FE227E219200D4E67B686AE7800A00203A
:102DB0005405000010B5024800F07CF910BDC04673
:102DC000380D002010B5024800F076F910BDC0465D
:102DD000380D0020002370B5064D040008002B605C
:102DE000FEF74EFE431C00D070BD2B68002BFBD0BD
:102DF0002360F9E74C0D002010B583070AD00300CB
:102E0000032102E001330B4205D01A78002AF9D1E0
:102E1000181A10BD030019680C4A0D4C8A188A4311
:102E200022420FD15968094A04338A188A43224240
:102E300008D15968054A04338A188A432242F1D0DE
:102E400000E001331A78002AFBD1E1E7FFFEFEFE25
:102E500080808080F8B50C000500FFF7ABFF204FA5
:102E6000BB685E6803239E431E4B341B9C46644430
:102E7000240B013C113324039C4207DB0021280072
:102E8000FFF7A8FFBB689B19984204D02800FFF702
:102E900099FF0020F8BD28006142FFF79BFF431C0B
:102EA0000DD00122BB68361B16435E600E4B280016
:102EB0001A68141B1C60FFF785FF0120EAE7002158
:102EC0002800FFF787FFBA68831A0F2BDEDD07495A
:102ED0000968401A0449086001210B435360D5E793
:102EE00038060020EF0F0000800A0020400A002072
:102EF000F0B5C64605000C0000B500294FD0FFF71D
:102F000059FF210008394C68012622000320B243F2
:102F10008F187B688343624898468368BB426BD0B6
:102F200043467B6026421ED108239C460C6884449D
:102F3000091B12198C6864454FD0CB68E3609C6014
:102F40004346FC186468344211D1BB68554C424476
:102F5000A34200D17FE0FC68DC60A360012313433F
:102F60004B608A5006E0FC1864683442EDD016438A
:102F70004E603A6080239B009A4213D25409D308D2
:102F80000122A2404468DB00224342601818836893
:102F9000C8608B608160D9602800FFF713FF04BC14
:102FA0009046F0BD530A042B3FD8940926003934CB
:102FB0003836E40004192368083C03279C4243D0B8
:102FC0005868B843904202D99B689C42F8D1DC68AB
:102FD000CC608B60A160D960DEE74346F81840689A
:102FE000304258D11300B868FA6843441E43C260A7
:102FF00090604E60CB50CFE713004344264206D189
:103000000A68891A8C689B18CA68E2609460012279
:103010001A434A60244A816012689A42BCD8234B02
:1030200028001968FFF716FFB6E7142B07D9542BB1
:103030001AD8140B26006F346E36E400BAE71E006F
:103040005C335B36DC00B5E70122B610B24046685F
:1030500032434260BCE7D9609960CB608B6001234A
:1030600013434B608A5097E7AA246400A34205D813
:10307000D40B260078347736E4009BE70C4CA3424F
:1030800005D8940C26007D347C36E40092E7FE24BB
:103090007E26A4008EE7330013434B603A607BE743
:1030A0003806002040060020440A0020B00A002014
:1030B000540500007047C0467047C046F8B5C0468A
:1030C00001B40248844601BC604700BF5D01002096
:1030D00001B40248844601BC604700BF850100205E
:1030E00001B40248844601BC604700BF11010020C2
:1030F00001B40248844601BC604700BFC100002003
:1031000052503230343020627900000052617370C6
:10311000626572727920506900000000412062727D
:10312000616E64206E6577006D6963726F636F6EA8
:1031300074726F6C6C6572005477696E20636F7285
:1031400065204D300000000046756C6C2043205314
:10315000444B00004D6F726520706F776572206977
:103160006E000000796F75722070726F6475637401
:10317000000000004D6F7265206265616E73000093
:103180007468616E204865696E7A210008005250AB
:103190001A520A00003100100C3100101C310010CE
:1031A000283100103831001048310010543100101F
:1031B0006431001074310010803100104861726475
:1031C0007761726520616C61726D20256420616C8D
:1031D000726561647920636C61696D6564000000EB
:1031E0000A2A2A2A2050414E4943202A2A2A0A0024
:1031F0000A00000048617264206173736572740094
:1032000052656C656173650068747470733A2F2F32
:103210006769746875622E636F6D2F726173706277
:103220006572727970692F7069636F2D6578616D51
:10323000706C65732F747265652F484541442F6922
:1032400032632F6C63645F313630325F6932630002
:10325000312E302E300000007069636F00000000D6
:103260006C63645F313630325F69326300000000A6
:10327000466562203136203230323100060052502D
:10328000BBFF3CB658320010060052509A23561825
:103290000832001006005250D3F075420032001080
:0432A0000D0A000013
:1032A4008C310010E8010010DC010010D001001086
:1032B4007C320010C40100108832001094320010D7
:1032C40010B502680024EFF3108172B61368002B66
:1032D400FCD0BFF35F8F0379002B0BD00368BFF3DF
:1032E4005F8F1C6081F3108820BF0268EFF31081A8
:1032F40072B6EBE701220271D02212061268427103
:103304000268BFF35F8F136081F3108810BDC0465D
:10331400030010B50068EFF3108472B60268002A47
:10332400FCD0BFF35F8F1A79002A0DD0002913D087
:10333400052200209A560A601B68BFF35F8F0022A3
:103344001A6084F3108810BD01321A71D02212065B
:10335400126801205A71EFE70020EDE70268EFF3ED
:10336400108172B61368002BFCD0BFF35F8F00236B
:10337400037140BF0268BFF35F8F136081F310884D
:103384007047C0467047C0461000000000000000AF
:103394000000010000000000000000000000020026
:1033A4000000000000000000000003000000000016
:1033B400000000000000FF000000000000B54868A5
:1033C40001318E460047704609380149884700BDDF
:1033D400B920001000000000000000000000000000
:1033E400503300004C3300005433000052330000CB
:1033F4004D5300004D43000053340000433400009B
:103404000040044000000000100200200000000002
:1034140000000000FC04002064050020CC0500200E
:103424000000000000000000000000000000000098
:103434000000000000000000000000000000000088
:103444000000000000000000000000000000000078
:103454000000000000000000000000000000000068
:103464000000000000000000000000000000000058
:103474000000000000000000000000000000000048
:103484000000000000000000000000000000000038
:103494000000000000000000000000000000000028
:1034A4000000000000000000000000000000000018
:1034B4000000000000000000010000000000000007
:1034C4000E33CDAB34126DE6ECDE05000B000000CC
:1034D40000000000000000000000000000000000E8
:1034E40000000000000000000000000000000000D8
:1034F40000000000000000000000000000000000C8
:1035040000000000000000000000000000000000B7
:1038440038060020380600204006002040060020EC
:10385400480600204806002050060020500600209C
:10386400580600205806002060060020600600204C
:1038740068060020680600207006002070060020FC
:1038840078060020780600208006002080060020AC
:10389400880600208806002090060020900600205C
:1038A4009806002098060020A0060020A00600200C
:1038B400A8060020A8060020B0060020B0060020BC
:1038C400B8060020B8060020C0060020C00600206C
:1038D400C8060020C8060020D0060020D00600201C
:1038E400D8060020D8060020E0060020E0060020CC
:1038F400E8060020E8060020F0060020F00600207C
:10390400F8060020F8060020000700200007002029
:1039140008070020080700201007002010070020D7
:103924001807002018070020200700202007002087
:103934002807002028070020300700203007002037
:1039440038070020380700204007002040070020E7
:103954004807002048070020500700205007002097
:103964005807002058070020600700206007002047
:1039740068070020680700207007002070070020F7
:1039840078070020780700208007002080070020A7
:103994008807002088070020900700209007002057
:1039A4009807002098070020A0070020A007002007
:1039B400A8070020A8070020B0070020B0070020B7
:1039C400B8070020B8070020C0070020C007002067
:1039D400C8070020C8070020D0070020D007002017
:1039E400D8070020D8070020E0070020E0070020C7
:1039F400E8070020E8070020F0070020F007002077
:103A0400F8070020F8070020000800200008002024
:103A140008080020080800201008002010080020D2
:103A24001808002018080020200800202008002082
:103A34002808002028080020300800203008002032
:103A440038080020380800204008002040080020E2
:103A54004808002048080020500800205008002092
:103A64005808002058080020600800206008002042
:103A740068080020680800207008002070080020F2
:103A840078080020780800208008002080080020A2
:103A94008808002088080020900800209008002052
:103AA4009808002098080020A0080020A008002002
:103AB400A8080020A8080020B0080020B0080020B2
:103AC400B8080020B8080020C0080020C008002062
:103AD400C8080020C8080020D0080020D008002012
:103AE400D8080020D8080020E0080020E0080020C2
:103AF400E8080020E8080020F0080020F008002072
:103B0400F8080020F808002000090020000900201F
:103B140008090020080900201009002010090020CD
:103B2400180900201809002020090020200900207D
:103B3400280900202809002030090020300900202D
:103B440038090020380900204009002040090020DD
:103B5400480900204809002050090020500900208D
:103B6400580900205809002060090020600900203D
:103B740068090020680900207009002070090020ED
:103B8400780900207809002080090020800900209D
:103B9400880900208809002090090020900900204D
:103BA4009809002098090020A0090020A0090020FD
:103BB400A8090020A8090020B0090020B0090020AD
:103BC400B8090020B8090020C0090020C00900205D
:103BD400C8090020C8090020D0090020D00900200D
:103BE400D8090020D8090020E0090020E0090020BD
:103BF400E8090020E8090020F0090020F00900206D
:103C0400F8090020F8090020000A0020000A00201A
:103C1400080A0020080A0020100A0020100A0020C8
:103C2400180A0020180A0020200A0020200A002078
:103C3400280A0020280A0020300A0020300A002028
:103C4400FFFFFFFF00000200000000000000000072
:103C540059240010ED210010AD220010B9230010EA
:043C64000103001048
:0400000510000105E1
:00000001FF
