:020000041000EA
:1000000000B52F4B212058609868022188439860E2
:10001000D860186158612B4B002199600221596109
:100020000121F02299502849196001219960352059
:1000300000F03EF80222904214D00621196600F02A
:100040002EF8196E01211966002018661A6600F054
:1000500026F8196E196E196E052000F029F8012195
:100060000842F9D1002199601849196000215960AE
:1000700017491848016001219960EB211966A021F8
:10008000196600F00CF800219960134911480160CD
:100090000121996001BC002800D11048004703B538
:1000A000996A04200142FBD001200142F8D103BD2E
:1000B00002B518661866FFF7F2FF186E186E02BDDB
:1000C00000000240000000180000070000035F006D
:1000D00021220000F4000018222000A001010010DD
:1000E0000000000000000000000000000000000010
:1000F0000000000000000000000000003E272A6011
:10010000274800E000202749886006C881F3088856
:10011000104725480068002839D112A40ECC0029C8
:1001200002D000F012F8F9E72049214A002000E04F
:1001300001C19142FCD11F4988471F4988471F4987
:10014000884700BEFDE701C901C29A42FBD3704750
:10015000F2EB8871E454001008550010640100109F
:1001600090A31AE708550010C0000020740B00206F
:10017000BC5F00100000042000000420BC5F0010E1
:1001800000100420001004200000000070470C48FC
:1001900001F00EFE0047EFF30580C0B2704700008B
:1001A0000002001000ED00E0000000D0740B002001
:1001B000982A00204915001021030010691600102C
:1001C0005756000006005250ABB36053F85200106F
:1001D00006005250861C03020853001006005250BD
:1001E0005422A29D1C53001005005250DE65F46895
:1001F000BC5F0010000000000000000000000000D4
:100200000020042013010010C3020010C5020010DA
:10021000C1020010C1020010C1020010C102001092
:10022000C1020010C1020010C1020010C70200107C
:10023000C1020010C1020010C9020010CB02001060
:10024000CD020010CD020010CD020010CD02001032
:10025000CD020010CD020010CD020010CD02001022
:10026000CD020010CD020010CD020010CD02001012
:10027000CD020010CD020010CD020010CD02001002
:10028000CD020010CD020010CD020010CD020010F2
:10029000CD020010CD020010CD020010CD020010E2
:1002A000CD020010CD020010CD020010CD020010D2
:1002B000CD020010CD020010CD020010CD020010C2
:1002C00000BE00BE00BE00BE00BE00BEFFF763FF62
:1002D000103800BEF8B5C04610B5064C2378002B88
:1002E00007D1054B002B02D0044800E000BF0123DA
:1002F000237010BD740B002000000000D8500010C7
:10030000044B10B5002B03D00349044800E000BFA4
:1003100010BDC04600000000780B0020D85000102F
:10032000F8B5DE4657464E464546E0B504F002FABB
:1003300004F000F8284B294E9946294B294F9B463B
:10034000294B9A46294B984602F0CAFD3268002A8A
:100350001ED0D30F9A18521054004C444C4510D95B
:1003600058464946944600254B5F02228D5E043173
:100370005D19EB0F5B195B10038002308C42F2D8E1
:1003800062465946002092B203F060FC00233360BD
:1003900000F0E2FD53463C681D68002914D0FA22A3
:1003A0000023920001F078FD001BA842CCD3434605
:1003B000641918783C6004F0C9F9434601221B789F
:1003C000534042461370BFE7FA21890001F01EFD39
:1003D000001BA842B8D3EAE7AC1300204C2300204E
:1003E0007C1B00208813002050020020A113002055
:1003F000FA22024B92001A607047C0465002002059
:10040000FA22014B1A60704750020020014B024A49
:100410001A60704750020020C4090000FA22024B03
:1004200092001A607047C04650020020F0B54B7928
:10043000040085B0042B04D00020022B10D005B09E
:10044000F0BDCB78012B20D00020022BF7D14B78C8
:10045000012BF4D16A462000137003F0E3FEEEE7AF
:10046000CB78012B23D0022BE9D14B78022B32D051
:10047000012BE4D18B781D4A5B009B5A6A46200011
:100480001380022303F0CEFED9E74B78012B1BD05B
:100490000020022BD3D16A461000154BE0CBE0C000
:1004A0001B8803800E23200003F0BCFEC7E74B78B7
:1004B000012BC4D18B780F4A2000D35C6A4613709D
:1004C000012303F0AFFEBAE70B4B6A460093042307
:1004D00003F0A8FEB3E76A461000054B103360CB6B
:1004E00060C00823200003F09DFEA8E7A8130020A9
:1004F000D8500010A413002080BB000010B54B7929
:100500000020022B00D010BD4B78012BFBD1CB7803
:10051000012B11D0022BF6D1CB798C791B0223430E
:10052000022BF0D1537810788A781B0209490343D3
:10053000520001208B52E6E7CB798C791B022343D2
:10054000012BE0D100208B781056034AD0540120B3
:10055000D9E7C046A8130020A41300200B79012B73
:1005600001D0012070478B78002BFAD1FA22024B80
:1005700092001A60F5E7C046500200200B79012B6B
:1005800001D0012070478B78002BFAD01922014B43
:100590001A60F6E75002002010B5034B03481A60BA
:1005A00001F05AFF012010BD4C230020AC130020A5
:1005B00001207047004870472452001000487047DF
:1005C0003C51001070B5002825D0052830D8194BB3
:1005D0008000C658300004F0E9FBC0B2041C1F289C
:1005E00014D8E4B2002820D00023134DAA1CF15CDB
:1005F00001331180D9B202328C42F8D8C0230134C1
:1006000064009B001C4328002C8070BD1F24E4B2B2
:100610000028E9D109E0C124074D064B02221968E0
:10062000A81C01F019FFA400EDE7044C024DEAE715
:100630000020EAE754020020DC0B00200203000047
:1006400010B502F055F810BD094A830094464022C7
:10065000634410B51C68C0006240C024144080226E
:10066000520113431C60034B9C466044416010BD23
:1006700004C00140004001400123D0228340120603
:1006800093629361094A8300944640226344196847
:10069000C0004A40C021114080225201134319601A
:1006A000034B9C46052360444360704704C00140EF
:1006B00000400140F8B5CE464746914680B5EFF37D
:1006C000108772B6124E3368002BFCD0BFF35F8FD9
:1006D000CB08C55C0724C218280001230C409446AF
:1006E000E0401A000240904603420DD1A34062460A
:1006F0002B431370BFF35F8F4346336087F310883B
:100700000CBC90469946F8BD484600F0AFFFC04685
:100710002C0100D0F8B54746CE46884680B5EFF3A9
:10072000108C72B6214D2C68002CFCD0BFF35F8F6B
:100730009A422DD8D408055D071907242E001440CD
:10074000E640F1071ED507218946063908E0D4089E
:10075000055D07194C462E001440E640314211D089
:1007600001329342F3D201204042BFF35F8F002257
:100770000E4B1A608CF31088002811DB0CBC9046DD
:100780009946F8BD0123A3401D4310003D70ECE7DE
:10079000BFF35F8F00232B608CF310880120404251
:1007A0004346002BEAD0089800F060FF2C0100D0EF
:1007B0000021044B044ABFF35F8F02C39342FAD176
:1007C0007047C046000100D0800100D0044A107874
:1007D000431CDBB2172B00D9102313707047C0469F
:1007E0006C02002000B5054B83B001000093182275
:1007F0001F230348FFF78EFF03B000BD3C520010DB
:10080000B40C0020024B18688007C00F7047C04628
:1008100000C00640F0B5C646050000B506200E0033
:1008200001F0B2F800284DD0294B2A49EB185A4262
:1008300053418022D20394465B421340264A6344CC
:100840001360264A13601C008A689443FBD1204B36
:100850008021EB185A425341214A5B00490006208F
:10086000995201F091F83100C00001F0CFFA7F26D3
:100870001C4B0640C709013676086F629F4224D0A0
:10088000AE622C2398468024A8444346A4011C430E
:1008900000230620236001F077F8B9018919800050
:1008A00001F0B4FA6023EA6A414653406E221A40CE
:1008B00080235B010B431A600B4B2B6310232360D7
:1008C0000D3BAB6404BC9046F0BDAC62D9E7C046BA
:1008D0000080FCBF00C0004000E0004000F000408D
:1008E00050230020FFFF00000103000083680B4835
:1008F00010B5844661446244090112019A185918DE
:1009000054684B6801209C4201D802D00020C0B23C
:1009100010BD12680B689A42F9D8F7E7FFFFFF0F86
:1009200040BF002000217047F0B557464546DE46DF
:100930004E46E0B583B01F000FAB1B780E9C050040
:1009400092460193002C0DD10268947B002C56D066
:10095000116863008C461B196344033B5B789373F7
:10096000002B54D0AA68E3B2944652469B46384BBB
:100970002E68E3181B0163441A600C9A5F609A604A
:100980000D9ADA60D02380221B0612035A6163009D
:100990001B19033B98460022336843449A705A70EF
:1009A0001A70737B9946002B17D05A461900B0680D
:1009B00073689847326800282BD14346D1184B46BC
:1009C00058465B004B44033BD31898704046125C7A
:1009D000002A00D05A704B460B705B467373524628
:1009E0003B00287D00F008FB061E02D0019B002B77
:1009F00026D0109B002B28D020001E7000E0002085
:100A000003B03CBC90469946A246AB46F0BDD373BA
:100A1000A8E74B465B004B44033BD1188C4641464C
:100A2000484651188870D35C002B00D04B705B4651
:100A3000624613704B4620007373A145E0D1CEE7A8
:100A40005946286800F042FDD3E72000D8E7C046A9
:100A5000FFFFFF0FF0B5DE464E46574645460023E2
:100A6000E0B58DB00A93714B8200D3580B90994634
:100A700000239B464B46079300F06EFA079C060046
:100A80000F006268EFF3108572B61368002BFCD07C
:100A900022000794BFF35F8F2468637B9946002B85
:100AA00000D170E09268624B90464B441B01984421
:100AB00043461A685B6810001900801BB941002981
:100AC00068DD0B9800F098FA00230026984600276E
:100AD0009A46079C6368BFF35F8F5A461A6085F396
:100AE00010885346002B08D10028C5D10DB03CBC5E
:100AF00090469946A246AB46F0BDD0238022802185
:100B00001B06920309035A6199619A610A9B414647
:100B100018024B461843D047089009916268EFF3DA
:100B2000108572B61368002BFCD00794BFF35F8F5B
:100B30000899099A002A49DB114303D0079B1B69D6
:100B4000002B5ED1079B1B68DA7B002A07D051007F
:100B50008A1819688C4649466244033A51704A46DD
:100B6000DA734B46079A013BD168CA5C0132CA541A
:100B70005B46079A13615368BFF35F8F5A461A604A
:100B800085F3108878E700230026984600279A46C8
:100B900000209EE7002902D1002800D091E7012122
:100BA000200000F0F5FB43461E685F689B68079ACB
:100BB0009A464346DB689846D3684B44013B1B7812
:100BC0000A931B0203431361002082E72369002B71
:100BD000B8D033003C005B1A94411A002300A742AE
:100BE00019D89F421BD059460491012103914946CF
:100BF000029141460191514607980091FFF794FEFA
:100C0000B6E700F0A9F9089A099B06000F009219AF
:100C10007B419942E5D901225242D317E3E796423C
:100C2000E1D901225242D317DDE7C04678130020F4
:100C3000FFFFFF0FF8B557464E46DE464546914644
:100C4000E0B504009A464268EFF3108872B6136864
:100C5000002BFCD0BFF35F8F2668B57B002D40D002
:100C60006F0033687F19033FDB195B78B373002B88
:100C700000D1F373374B0022E918A36809019C46A1
:100C80004B4661440B6053464B60334BCA608B60EC
:100C9000D02380211B06090359613368DB199A7040
:100CA0005A701A70737B9B46002B35D02A001900AE
:100CB000B068736898473268002820D05B46584671
:100CC0005B005B44D719033BB870D118D35C002B91
:100CD00000D07B705B460D7073735D451DD00026A0
:100CE00026E06368BFF35F8F1D6088F310880120E2
:100CF00040423CBC90469946A246AB46F8BD5B4696
:100D00005B005B44033BD3189D70D119D25D002A70
:100D100000D05A705B460B7075734A465346207D6F
:100D200000F06AF9061EDAD02900206800F0CEFB38
:100D3000E36862685B19013B1B78BFF35F8F00219A
:100D4000116088F310880020002ED2D118022843A9
:100D5000CFE7C046FFFFFF0F2109001070B5184C08
:100D60002368002B00D070BD032000F0E9F80320B9
:100D700000F0A4F91349032000F0F8F8182001F05E
:100D800055FB0500FFF722FD0F4B2A009C466044EF
:100D900080000E496860102000F004FA10212860DD
:100DA000102001F047FB0121A860102001F042FB58
:100DB00003232B75064BE860DD602560D3E7C04652
:100DC000E00C0020550A001040000034ED0800102F
:100DD0007813002070B542680400EFF3108572B6F6
:100DE0001368002BFCD0BFF35F8F2068CAB2437B2F
:100DF00093420AD0FF230B405E00F3180668B44606
:100E00006344033B9B78002B13D0E668FF23B44672
:100E10000B406344013B090A1E78C9B28E420DD0D3
:100E200000206368BFF35F8F00221A6085F310888B
:100E300070BD22698A42F3D12361F1E7110000F00D
:100E400045FBEEE770B50E4D02000B00060028686A
:100E50000C00FFF7EFFE011E03DD20BF2868FFF73F
:100E6000B9FF084B0020596A8C4203D89B6A0130B5
:100E7000B34200D370BD641A611E8C41E0B2F9E741
:100E8000E00C002000400540F0B5D6464F464646EF
:100E9000C0B5EFF305833F22134018001038EFF37D
:100EA000108C72B6204D2A68002AFCD0BFF35F8FE9
:100EB0000122110081401D4C884661631C491700C6
:100EC0000E788A463100C1400F400A4215D01949B8
:100ED0008200646A51588C4219D3174BD25843464A
:100EE0009E4353461E70BFF35F8F00232B608CF32D
:100EF0001088002A06D0904704E0BFF35F8F2F6070
:100F00008CF310881CBC90469946A246F0BD0B4A53
:100F10009B00904643441A681A60BFF35F8F00231A
:100F20002B608CF31088EDE7280100D000400540CD
:100F3000A21300208C130020A40C0020D03F0540F9
:100F400010B50100024A0348FFF7B4FB10BDC046CC
:100F5000585200109F130020034B596A0A00986AE8
:100F6000596A8A42FAD170470040054070B50400C2
:100F70000D00EFF3108672B61A4A1368002BFCD0EE
:100F8000BFF35F8F002D1BD0200000F05BFD1649E2
:100F900081420AD0200000F05DFD0121200000F018
:100FA0003FFD0123A340114A1360114BA400E550FB
:100FB000BFF35F8F00220B4B1A6086F3108870BD61
:100FC0000B4BA200D5500122A2400A4920000B7809
:100FD00093430B70044900F067FD0021200000F0EE
:100FE0001FFDE5E7280100D0890E0010386005409C
:100FF000A40C0020A2130020F0B5CE46474680B5D1
:101000002A4C616A0D00A66A616AA942FAD18B4234
:1010100007D804D001200CBC90469946F0BDB242DE
:10102000F8D9EFF3108872B6214C21680029FCD062
:10103000BFF35F8F012585401C4C1E4E6563E9B2EE
:101040008C463178894661464F4639433170011DDF
:1010500089000A51184980004350216A0020294222
:101060000CD02000616A0C00876A416AA142FAD163
:101070008B4202D80AD1BA4208D90020BFF35F8F51
:1010800000220B4B1A6088F31088C4E7074B4F46C9
:101090001D625D6363469F4301203770BFF35F8F1E
:1010A0000022034B1A6088F31088B4E70040054023
:1010B000280100D0A21300208C13002010B5EFF3FC
:1010C000108472B60A490B68002BFCD0BFF35F8F07
:1010D00001238340074A0848136202789A4302704A
:1010E000BFF35F8F00230B6084F3108810BDC046F0
:1010F000280100D000400540A2130020024B9C466E
:1011000061448900016070474000003410B504005C
:10111000FFF75CFB01002000FFF7F0FFBFF35F8FDC
:1011200010BDC04610B504000120FFF75BFB0100B5
:101130002000FFF7E3FFBFF35F8F10BD70B5050020
:101140000E001400002924D0002A24D080686B6887
:101150009847296800280ED063001B197200033BD2
:101160009219CB18033A9E7088188A5C002A14D111
:10117000047030000EE073009B196200033B1219EB
:10118000CB18033A9C7088188A5C002A00D05A70E9
:101190000670200070BD0800FCE75A700470300033
:1011A000F8E7C046F0B5C64605000F0000B51021AF
:1011B0000120160001F03EF9EBB204000373032195
:1011C00047602800984601F035F900236373013326
:1011D000A3734346FF21E373FE232060A6602940EA
:1011E0002B4206D0421CFD3B0133137003328B426D
:1011F000FAD34B00591800234018033843702000DD
:1012000004BC9046F0BDC046F8B5CE464746060041
:101210000C0080B5002907D04D0003686D18033D10
:101220005A195778002F04D120000CBC90469946DB
:10123000F8BD7900C919033988464344597889466D
:1012400000215970517073683A00210080689847F6
:101250003368002814D042469A18947059195B5D7F
:10126000002B00D053700F70270049463000FFF765
:10127000CBFF390002003000FFF760FF0400D3E726
:10128000424641465D19AF709A185B5C002B00D056
:101290006B701470E9E7C046F0B557464546DE4628
:1012A0004E46E0B50D006B0001685B19DF1E0400BF
:1012B000C85D83B00192CA1900284CD043001B18A6
:1012C000033BCB185E78B446002E16D1019E002E4B
:1012D0003ED1E67B002E04D073009B19CB18033B54
:1012E0005D70E57300282FD10023537003B03CBC20
:1012F00090469946A246AB46F0BD72006244033A5E
:1013000089184A78904600224A7091465A70010026
:1013100032002000FFF712FF43468246002B07D021
:101320005B0021684344033BCB185A78002A16D14E
:10133000424651462000FFF701FF2168019BCA1970
:10134000002BC6D00028CFD043001B18033BCB187E
:1013500000219970C8E7019B002BC5D1B9E7500067
:1013600080180338091848788346484648705870F2
:1013700041462000FFF7E2FE594680462000FFF775
:1013800043FF414602002000FFF7D8FE8046CFE72A
:10139000F0B54E464546DE465746E0B5467B04006E
:1013A00075000068AD19033D83B00191415D42199C
:1013B00000294ED04B005B18033BC3185F78BC4636
:1013C000002F18D1019D002D40D1E57B002D04D0C8
:1013D0006B005B19C318033B5E70E673002931D1C3
:1013E000002330005370617303B03CBC90469946B3
:1013F000A246AB46F0BD7A006244033A80184278B8
:1014000093460022427091465A7020003A00FFF73E
:1014100095FE5B468046002B07D05B0021685B444D
:10142000033BCB185A78002A17D15A464146200070
:10143000FFF784FE019B010020684219002BC4D0F5
:101440000029CDD04B005B18033BC31800209870D7
:10145000C6E7019B002BC3D1B7E7500080180338C3
:101460000918487882464846487058705946200006
:10147000FFF764FE53468346002B07D05B002168CC
:101480005344033BCB185A78002A06D1594652469A
:101490002000FFF753FE8346C7E75000801803384B
:1014A000091848464F784870587051462000FFF799
:1014B00045FE390081462000FFF7A6FE494602009E
:1014C0002000FFF73BFE8246E0E7C04670B504000F
:1014D00000292CD0437B8B422ED005684800401851
:1014E000033828188278002A21D053009B18033B28
:1014F000EA5CEE188A4202D11BE0002A08D05300B1
:101500009B18033BEB185A788A42F6D142785A70FE
:1015100000230022837043702000FFF7BDFE617B33
:1015200002002000FFF70AFE6073012000E00020A7
:1015300070BD43783370EBE700221900FFF7ACFE73
:1015400060730120F4E7C0462B4B2C4A70B51A603B
:101550002B4A2C4B2C491A6010008B689843FBD106
:101560002A4C2B4B9C4209D2013B1D1BAD08013577
:10157000AD002D1908CC9847AC42FBD100F094F88F
:10158000244A204B1A60204A9368DB018033FBD148
:101590004022214B214C9A675A671A67DA66204B22
:1015A0009C420BD2013B1D1BED080135ED002D19AE
:1015B00020000834FFF7AAFDAC42F9D1194C1A4DAE
:1015C000A168C022280000F047FFA560FFF7F0F8EF
:1015D00000F0AAFBFFF7C2FB144C154B9C4209D24A
:1015E000013B1D1BAD080135AD002D1908CC9847F6
:1015F000A542FBD170BDC04600E00040BFCDFFFF5B
:10160000FE7F3C0000F0004000C00040600B002066
:10161000700B0020FFFFFF0100F00140580B00207D
:10162000600B002000ED00E000000020700B0020A7
:10163000740B0020094A03001068002805D00849EF
:10164000C3188B4207D21360704706480449C31879
:1016500010608B42F7D301204042F5E7EC0C0020EC
:1016600000000420982A002000BEFDE70FB400B55A
:10167000084883B000F0C6FF049B002B07D005A9E3
:101680001800019100F074FB034800F0BBFF00BE9E
:10169000FDE7C0467C5200108C52001010B5014886
:1016A000FFF7E4FF9052001030B50C2083B000F03B
:1016B00071F9FFF7A7F800280ED09A4B9A4A1A60E2
:1016C0005A609A60DA601A615A619A61DA611A6244
:1016D000964A5A6203B030BD954CA06700F062F99B
:1016E0000122944B1A60636C012BFCD10322924BB4
:1016F0001A608F4A936B012BFCD1C0228F4B920151
:101700001A608F4B8F491A6010008B689843031E34
:10171000FAD1022401218C4A8C480633009400F04F
:1017200055F905238A4A01218A48009400F04EF9B0
:10173000894B5A68FF2A02D8802252005A608022C0
:10174000784C7D4B21691201834D1A60002905D028
:10175000606900F05BFB01300138FDD1E0217E4B78
:1017600002201A681140802252012A431160196830
:10177000484003210140116004219A681142FCD0C5
:101780008022802192012A430901116080225200A7
:101790005A60724B2361724B5968FF2900D85A6016
:1017A00003226F48634B01211A60020093681942BB
:1017B000FCD0E02513681D4080235B0103431D60BE
:1017C00012684A400321114019600221644A93685B
:1017D0001942FCD0802380219B0103430901196039
:1017E0008021604B4900516063615F4B5A68FF2A5A
:1017F00000D8596080225D4BE16912015A4D1A6090
:10180000002905D0606900F001FB01300138FDD1ED
:10181000E02255490B681A4080235B012B431A6074
:10182000802380229B012B4312011A6080223E4BB1
:1018300052004A60E3614E4B5968FF2900D85A6054
:1018400080224C4B216A1201494D1A60002905D0B3
:10185000606900F0DBFA01300138FDD1E022444933
:101860000B681A4080235B012B431A60802380227F
:101870009B012B4312011A60802380225B004B6086
:10188000294BD20223623C4B5968914200D25A60E4
:1018900080223A4B616A1201374D1A60002905D047
:1018A000606900F0B3FA01300138FDD1E02232491D
:1018B0000B681A4080235B012B431A60802380222F
:1018C0009B012B4312011A608023DB024B60174BF4
:1018D00063622B4B5A68FF2A02D8802252005A605A
:1018E0008022284BA1691201254D1A60002905D0DC
:1018F000606900F08BFA01300138FDD1E022204907
:101900000B681A4080235B012B431A6080238022DE
:101910009B012B4312011A6080235B004B60114B2B
:10192000A361D7E6B80C0020006CDC021BB70000F6
:10193000008000403CB0004030B0004000E000407B
:1019400000F0004000C00040002F685900800240B5
:1019500000389C1C00C0024030800040001BB700D3
:101960003C800040405973075480004054B0004010
:101970006080004060B000406C8000406CB000406F
:101980004880004048B00040014B8000C05870477C
:10199000B80C00208023024A9B000343D3627047A7
:1019A00000800540AA23064A1B0113602F23054926
:1019B000D360054B19605368002BFCDA7047C046B2
:1019C0000040024000B0FA0000600240F8B51D007F
:1019D00006AB1E7801235B42436000230400836052
:1019E00001600C20170000F011FA4101091A8B0167
:1019F000591AC90009188901380000F007FAC021F6
:101A0000231D890119432123A0600B602268002A4D
:101A1000FCDA08232D0436032E43E6600B60F8BD84
:101A200001238340002904D0034A1360034A136052
:101A30007047034A1360FBE780E200E000E100E04A
:101A400080E100E0024B10309B688000C058704776
:101A500000ED00E070B50D00EFF3108672B60F4A8E
:101A60001368002BFCD0BFF35F8F0D4B10309B68C9
:101A700084001B590B4A934203D09D4201D0FFF7CB
:101A80000DFE074B9B681D51BFF35F8FBFF35F8F48
:101A90000022024B1A6086F3108870BD240100D02A
:101AA00000ED00E0CD020010F0B5DE4657464E4690
:101AB0004546E0B50C0083B0EFF3108A72B65F4A7A
:101AC0001368002BFCD0BFF35F8F10229146814436
:101AD0004A465B4B96009B689D595A4B98469D42DF
:101AE00005D0A54216D0584FEB1B2F2B14D9544BC1
:101AF0009B689D51BFF35F8FBFF35F8F00224F4BF9
:101B00001A608AF3108803B03CBC90469946A246FE
:101B1000AB46F0BD1D00EAE7012383409B465A46D1
:101B20004A4B1B681A4000925A46494B1A60BFF351
:101B30005F8FFEF730FB0190002803D0814501D074
:101B4000FFF7ACFD0123290099438B68A34269D0BC
:101B50000A0007E043001B189B00FB189868A0428E
:101B600011D01A00062010560028F3DA009B002B33
:101B700005D05A46374B1A60344B1A60B7E75A46BD
:101B8000334B1A60B3E706201856002822DB4200C8
:101B9000111889007C188846A1689960E179D9718B
:101BA000062161569971A1797F292BD8A488F91A49
:101BB0006405241544440919E0240905490D24024B
:101BC000214399801218244B9200BF181A7818707C
:101BD000BA71CBE70198002817D1FF3090711F48E8
:101BE00090801D4ACF1B1078BF109871BB00DB1985
:101BF00019015B1819025B1819045B185B00DB19EB
:101C00001370B3E7BD210902DBE7154A1549D21A63
:101C1000083A5002400D01439980134952080A4383
:101C2000DA80A3E7062008560B000028AFDA019AF5
:101C3000002AEAD10B004546D3E7C046240100D074
:101C400000ED00E0CD0200107002002000E100E095
:101C500080E100E080E200E0A013002000BDFFFF73
:101C6000AA02002000F0FFFF00F8FFFFF8B50125F1
:101C700004000543FEF78FFAEFF3108672B6244A8C
:101C80001368002BFCD0BFF35F8F224F8000E11B55
:101C900089108A0052181301D2181302D2181304A3
:101CA000D3181D4A5B005B1891680958A9421CD0E3
:101CB0000622BA5693421CD01222BA56934222D020
:101CC0001E22BA56934220D02A22BA5603219A42A3
:101CD00010D0124A11781370A171BFF35F8F0022E8
:101CE0000B4B1A6086F31088F8BD92680C491150AE
:101CF000EFE700214A005218FF219200BA189171B3
:101D000008499180E5E70121F4E70221F2E7C046A6
:101D1000240100D07002002000ED00E0A01300209C
:101D2000CD02001000BDFFFFF0B500220324FF2705
:101D3000802620003D00094B11009C461040C00049
:101D40008540A14361440B680132AB4335008540B7
:101D50002B430B60202AECD1F0BDC04600E400E02C
:101D600010B5002800D110BD00F03EFCFBE7C046D6
:101D700010B5094A0300146884B0002C08D0012271
:101D800000910648524203A9A047012004B010BDAB
:101D900000F038FC0020F9E770130020611D0010EE
:101DA00001480421014B1847C0020020D11D00103A
:101DB000142310B50100188804331B88984710BD00
:101DC000162310B50100188802331B88984710BDF0
:101DD000F0B5C64600B5002916D01423040001252D
:101DE00098461827890046184346216818883B887A
:101DF000984701C4431E984140420540A642F3D192
:101E0000280004BC9046F0BD0125F9E7134A936F02
:101E10009B0813D210665166002905D0FFE7FFE743
:101E2000FFE7516F106F704704B5002801D0002004
:101E3000C04303F031F9002104BDC046936F5B0835
:101E4000FDD3F0B5946ED56E576F166FFFF7E2FFB6
:101E50009466D56657671667F0BD0000000000D095
:101E600094464E4A926F9208624601D230E0C046D4
:101E7000F0B54A4EB56F6D08FCD3346E756E776F52
:101E8000366F00F025F89446444A14665566576745
:101E900016676246F0BDC0469446404A926F92086B
:101EA000624601D258E0C046F0B53C4EB56F6D08B1
:101EB000FCD3346E756E776F366F00F04DF8944634
:101EC000364A14665566576716676246F0BDC046C7
:101ED000002B24DB11D000293EDA00B5C943404273
:101EE00000D1013100F038F8C943404200D101313E
:101EF000DB43524200D1013300BD002AEBD1002860
:101F000001D1002905D00020C90FC90701D1C04364
:101F1000410800B503F0B8F80022002300BD00B569
:101F200000290ADBDB43524200D1013300F014F8F0
:101F3000C943404200D1013100BDC943404200D1F4
:101F40000131DB43524200D1013300F005F8DB439D
:101F5000524200D1013300BD002923D1002B18D1FA
:101F6000002A0CD0BC460D4F38667A66002100234B
:101F7000FFE7FFE7FFE77A6F386F67467047002893
:101F800001D00748010000B503F07EF800220023CD
:101F900000BD02000B00002000217047000000D0AF
:101FA000FFFFFFFF002B00D0BDE0130C26D1002A5D
:101FB000E7D080B4104F39667A66FFE7FFE730B4A8
:101FC000040C7B6F396F1B0423433B66FFE7FFE77D
:101FD000FFE7C04684B27B6F3D6F1B0423433B6623
:101FE000FFE7FFE7C04600232C042D0C7A6F386F03
:101FF00000196941B0BC7047000000D0F0B59446AC
:102000000025140E01D112020835140F01D112015E
:102010000435940F01D192000235D40F01D1520042
:102020000135D40B0134254F7C66254C3C660E0CE3
:1020300093B2FFE7FFE7FFE73C6F6643360C770399
:10204000BE467343DF0B5B04C01AB941130C7343E4
:10205000DB18C91ACE086643360CB64493B27343F4
:102060001F0F1B01C01AB941130C73431F0B1B0533
:10207000C01AB941860D8F023E436643360C092DC6
:1020800024DB520A7243801A7703460A6643360CF1
:1020900016235B1BDE40DF40BF1964466643821B8C
:1020A0007046043506330100D940A840C01900D35A
:1020B0000131A24206D20023F0BD0000000000D092
:1020C000FFFFFFFF121B0130F3D3F1E709277F1B4E
:1020D000FE406446A2B27243801A00D20139220C3B
:1020E0007243130C1204821A99410B007046043596
:1020F00013370100F940A840801900D30131002BAB
:1021000002D1A2420AD2F0BD013000D30131121B2C
:10211000FAD2013BF8D1A24200D2F0BD013000D387
:102120000131121BF7E7F0B51C0C00D080E00CB4B5
:1021300000251C0A04D11B02160E33431202083577
:102140001C0B04D11B01160F3343120104359C0BE9
:1021500004D19B00960F334392000235DC0B02D171
:1021600092185B4101351C00971864410134464FB9
:102170007C66464C3C660E0CFFE7FFE7FFE7C04677
:102180003C6F6643360C7703BE4697B27743C01B5D
:1021900000D20139C01B00D201399FB27743C91B5D
:1021A000C91B170C77437E04FF0B801BB941CE0877
:1021B0006643360C0C2D33DBB644120B1F053A4335
:1021C0001B0B97B27743C01B00D201399FB27743F4
:1021D000C91B170C77433E043F0C801BB941860D89
:1021E0008F023E43664329277F1BFE400C3D774606
:1021F000AF40BF1930BCA2B2ABB272437343801A76
:102200009941220C7243130C1204801A9941020066
:102210000B000137001BA941F9D2781E0021F0BD47
:102220000C277F1BFE4077467F0BAF40FF19E0E78E
:1022300000245D1C07D0144F7D663966FFE7FFE779
:10224000FFE7FFE73C6F95B29EB265436643401BD4
:10225000B141150C1E0C6543664336042F0C3E43FA
:102260002D04401BB141994204D202000B00200012
:102270000021F0BD01D19042F7D3801A9941013479
:102280009942F2D3F6E70000000000D0FFFFFFFF05
:10229000132370B51D78012D10D00BDD2448FFF7F6
:1022A0008FFD244C01008022200000F0D5F8022D83
:1022B00001D070BD1F4C204AA264FAE72E001D4CCD
:1022C0001D4AA3085B421E401D422FD033002260EE
:1022D0002020B1006118801B0A604A608A60CA60D1
:1022E0000A614A618A61CA610A624A628A62CA6292
:1022F0000A634A638A63CA630A644A648A64CA6472
:102300000A654A658A65CA650A664A668A66CA6651
:102310000A674A674008102803D18A67CA67A2641F
:10232000C7E71E339B00E250A264C2E70023CFE759
:1023300053440000542300203D23001007B560469D
:1023400001880A0A0230DF2AFAD1C9B2820804D30E
:10235000028840880004104300E00068014A5050A1
:10236000039007BD5423002051434343C9188C46B2
:10237000110C83B24B4310B4040C614392B280B28F
:10238000504362431C041B0C001910BC5941130438
:10239000120CC0185141614470470000132310B55E
:1023A00012481C78FFF70CFD0100012C0AD003DD58
:1023B00080220F4800F050F80E48FFF7F9FC0E4B52
:1023C000186010BD0A4C5422200000F045F80B4B59
:1023D0006365A365E36523666366A366E3662367B7
:1023E0006367A367E3672362E361E5E753460000A1
:1023F000542400204C3300005425002001240010F8
:1024000007B5604601880A0A0230DF2AFAD1C9B24C
:10241000820804D3028840880004104300E000686A
:10242000014A5050039007BD5424002010B502F01B
:10243000D1F910BD10B502F093F910BD0148042187
:10244000014B1847D0020020D11D0010014B1B6822
:1024500018470000D0020020014B5B6818470000BD
:10246000D0020020F8B54746CE460D0080B51600D4
:102470000700002A20DD4B1E98461A4B002400203E
:102480009946002C2BD043461B5D0D3B5A425341CD
:10249000DBB22A5D0A2A13D00134A642F1DC86425F
:1024A00003DD311A3B6828189847AD19013D2B7898
:1024B0000D3B5A4253413B740CBC90469946F8BDC3
:1024C000002BE9D1A04203DA211A3B68281898476B
:1024D000484602213B68013498472000DDE73B7CF9
:1024E000D7E7C0464C530010F0B557464546DE4688
:1024F0004E46D023E0B51B061C68374B83B007005F
:102500000D00180001A990469A4602F0CDFD8146C3
:10251000002807D1019B9C4204D0504602F0D4FD14
:10252000012399466B1C03D1380002F03FFC0500E3
:102530002A4B1C68002C2FD00A23294E9B4602E010
:10254000E468002C28D02268002AF9D03368002BD8
:1025500001D0A342F4D1637C002B2AD02A00390099
:102560002000FFF77FFF4346002BE9D06B465A4619
:102570001A71637C002B20D0237C002B26D00121F4
:10258000236801A898476B461B790D3B5A4253417B
:102590002374E468002CD6D14B46002B12D1681E60
:1025A0008541E8B203B03CBC90469946A246AB4692
:1025B000F0BD290038009047D5E70121236801A824
:1025C0009847BDE7504602F057FDE8E7022105486D
:1025D00023689847D7E7C046580B0020E40C00203A
:1025E000E80C00204C53001010B582B06B4604007C
:1025F0000022D81D01210470FFF776FF200002B0F1
:1026000010BDC04670B5040002F0D0FB01220100ED
:1026100005002000FFF768FF084B1C68002C06D05F
:102620006368002B05D09847E468002CF8D1280097
:1026300070BDE468002CF3D1F9E7C046E40C00203B
:102640000D4A1368002B13D0834202D109E098424F
:1026500008D01A00DB68002BF9D1002900D0D06027
:1026600070471A000029FBD1DB68D360C160F7E72F
:102670000029F5D01060F3E7E40C0020F0B5002944
:1026800010D045180D272021094B0A4A00269E5FCD
:102690000478A64207D093691942FCD10130146036
:1026A000A842F5D1F0BD93691942FCD11760F2E759
:1026B000502300200040034030B5050000200029D1
:1026C00010DD1024094A013D93691C4208D10130F4
:1026D00093691C42FCD113682B548142F4D130BD64
:1026E0000028FCD103204042F9E7C04600400340E7
:1026F000E12110B50A4B49021B780A4B0A481B78A6
:10270000FEF788F802210020FDF79EFF022101203C
:10271000FDF79AFF01210548FFF792FF10BDC04663
:10272000005500100455001000400340E002002056
:10273000F0B5982357464546DE464E46414AE0B539
:10274000D75880243D0085B06402883B2540039320
:10275000274214D00121392000223B4B2500195477
:10276000597147315A541A7500200132374901F026
:102770002DF88022364B92021A65364B0393FB06E6
:102780000CD480235B011F423AD1BD4254D105B025
:102790003CBC90469946A246AB46F0BD294B9A6D8B
:1027A000002A28D09A462A4BB946002601259B4686
:1027B000170003E06D000136202E1BD02F42F9D008
:1027C0005346DB6D5B46682401229D6573085C43BC
:1027D00034239046B2435343E4181B4B9C46644455
:1027E000200000F03FFA00281AD1AF4301366D00F7
:1027F000002FE1D14F4680235B01039D1F42C4D0CF
:102800000022154900200A700E491D430A6001325A
:10281000012100F06BFF80220D4B12031A65B4E713
:102820004346E269217900200093002300F0F6FF7F
:10283000200000F0E3F9D8E7290008487940FEF7C6
:1028400015FFC04600001150F00C00200000105091
:1028500000301150100001009E1300209053001012
:1028600010B501210520FFF7DBF810BD094B10B5AD
:10287000012219703921002307484254427147321E
:1028800083540375002200213430013300F070FAC4
:1028900010BDC0469E130020F00C00208022024B89
:1028A0005202DA647047C0460020115070B505002E
:1028B00000F07CF905201F49FFF7CCF8D0221E4C10
:1028C00000212000D200FFF7C1FD00231B4A1C4954
:1028D00013701C4A40201160802252006280A28046
:1028E000D03AA354184A6370E062E2603526136060
:1028F0000122A2554C36FF3626870026206624305A
:10290000265412491248A36021612270E386206494
:102910000360E3633433E2540E4B61641A64802233
:102920009205DA6490220C4928009950FFF7B6FF0F
:1029300070BDC04631270010F00C00209E1300200F
:1029400080011050741300208400105000011050BA
:102950008000105000001150101001000B785B0631
:1029600002D14B78052B09D0012139200022064BDA
:102970005971195447311A755A547047034B1A78D4
:10298000034B1A60F0E7C046F00C00209E130020B5
:10299000000011500A00F8B507234746CE46547987
:1029A00010792340D4781B02A40703437F20A20F91
:1029B000682480B58978944608409146444334227F
:1029C000A046CE0972433D4D4244AA184FB2117140
:1029D000F943C90FD1704142414156709070517115
:1029E0006246012A5CD0402B5ED8342268217243B3
:1029F00041435218AA181100644630310C70D3625A
:102A0000C100002F3CDB2E4C0027A4466144D1605E
:102A10000F6000283CD02B4CC100A446614491605B
:102A2000682434224443A4467243274F62443968E1
:102A3000AA181161402B00D240233F22CB18134229
:102A400001D0934340333B60204B682259404B46B2
:102A50009C0634230C43A021734342439B18EB187C
:102A60009B6809060C431C6034235E43343358438F
:102A7000673B30182B5401200CBC90469946F8BD9A
:102A8000134C0027A4466144D1600F6000280FD189
:102A9000342300227343EB189A600E4A1A61E3E76D
:102AA0008022D2009342A0D319000B48FEF7DEFD2E
:102AB000064CC100A44661449160B1E7F00C0020CF
:102AC00084001050040010507413002000001050B7
:102AD0008000105000011050A453001010B50C00DD
:102AE000342011001A00E30958437F23234068244F
:102AF0005C43044B0019C018012300F039F9012090
:102B000010BDC046F00C002070B57F25342068232E
:102B10000D40CC096B4360430C4EC01830188378CD
:102B2000002B05D143785A425341094A0133936639
:102B300080220849120100F06BF8342101234C4334
:102B400034314D4364193419237570BDF00C0020E5
:102B500000201150FFF7FFFF70B57F253420682358
:102B60000D40CC096B4360430C4EC018301883787D
:102B7000002B05D143785A425341094A01339366E9
:102B80000022084900F044F8342100234C4334313A
:102B90004D4364193419237570BDC046F00C0020F4
:102BA00000301150FFF7FFFF7047C04680220E4BE8
:102BB000520410B51A600D4B0D491A6010008B6855
:102BC0009843FBD10B4C9C2200212000FFF73EFCD8
:102BD0008022002152010848FFF738FC092363676F
:102BE0000333A36710BDC04600E0004000F0004082
:102BF00000C00040000011500000105000230021D0
:102C00003222838281548361C3610362836270478D
:102C100010B5C368002901D01C682140002A11D0DA
:102C20008024E400114322420CD01A6822420BD1C6
:102C3000094A0A401A60FFE7FFE7FFE7FFE7FFE7FF
:102C4000FFE7C368196010BD4378044A9B00817890
:102C50009A580348FEF70AFDFFFBFFFFF40200202D
:102C6000CC530010F8B5467D0400002E00D168E07A
:102C7000C368C0781D68AD05AD0D002843D1E36978
:102C8000E918E161A269551A402D2ED86B189B1ADC
:102C90005F427B412427DBB22562E3558A424DD354
:102CA0004AD0002823D08022D2002A43617900290B
:102CB00002D0802080010243012041406171002B3D
:102CC00002D08023DB011A43E1680B685B053DD429
:102CD000224B13400B60FFE7FFE7FFE7FFE7FFE74B
:102CE000FFE70020E3681A60F8BD4025CEE7A36A3D
:102CF0002A009C4620696144FFF7AEFB8422120241
:102D0000E35D2A43D2E7E269A36A9446634418006C
:102D100021692A00FFF7A0FBE369E078E918E16187
:102D20000028AFD0236A9D42ACD200230122236247
:102D30002433A161E254D7E73000D5E70848FEF715
:102D400095FC8178074A0848FEF790FC6378054AAD
:102D50009B00A1789A580548FEF788FCFFFBFFFF0F
:102D600018540010F4020020EC530010CC53001053
:102D700070B50400002B49D0437D002B03D0002305
:102D80000375322023540023A261E361151C402AFD
:102D900031D80123ADB2521B6375534253412426EF
:102DA00025220020DBB22562A162A355A054E2785F
:102DB000002A22D08022D2002A436179002902D041
:102DC000802080010243012041406171002B02D02C
:102DD0008023DB011A43E1680B685B0519D4114BB2
:102DE00013400B60FFE7FFE7FFE7FFE7FFE7FFE7C1
:102DF000E3681A6070BD4025CBE72A002069FFF721
:102E00002BFB84221202A35D2A43D6E7FFF72AFF99
:102E1000F0E76378044A9B00A1789A580348FEF7CC
:102E200025FCC046FFFBFFFFF4020020CC5300103E
:102E3000F8B5372200212148FFF708FB204C20007D
:102E4000FEF764F91F4B1C601F4C20001830FEF782
:102E500069F9200001F058FC1C4B1D4E1D4D1C60F3
:102E6000002E04D0280000E000BF1B4B1860002497
:102E70002B78002E19D0194E174F9C420FD319D121
:102E80003300984701342B78E4B2A342F5D20020F6
:102E9000FFF70CFD0020FFF7E3FC0120F8BDE30085
:102EA0003A681B1B9B009B58EBE700F0E1FE2B7878
:102EB000002BECD000231B68FFDEC046640C002012
:102EC0001C0C00209C0C0020FC020020A00C002008
:102ED000000000009C130020C40B0020713C001077
:102EE000F0B5DE4657464E464546E0B58BB001F09C
:102EF00031FA002800D122E1B24B07AD9A46B24B1D
:102F00009B4653461E68B269EFF3108372B6116890
:102F10000029FCD0BFF35F8FF3612900300001F07E
:102F200067FAB2690400F369BFF35F8F0021116093
:102F300083F31088002800D101E16B78082BE0D8DA
:102F40005A469B00D3589F466B68002BD9D0A8687F
:102F50009847D6E77F2229799C4B0A405400C8093C
:102F60001B191B181800012620304479B443447102
:102F700044790336B4434471002A00D1E6E0944A10
:102F8000DB7C002A06D0934A1278934200D26DE18E
:102F90009B1ADBB2002B00D0D1E08F4C6A792878E5
:102FA000AB68A047ADE7894B0127984642461B789E
:102FB00000203B4313702B78994600F039FD6023C5
:102FC0002E793340602B0DD0402B00D1DAE0F6068D
:102FD000F60E012E00D154E1022E00D110E1002E98
:102FE00000D1E1E028780021FFF78EFD80212878CC
:102FF000FFF78AFD85E7794B002B82D0FDF70EFAAB
:103000007FE7774B002B00D17BE7704B18780007E8
:10301000C00FFDF7FBF974E76E4E6D4A002433785C
:10302000002A00D198E06F4FA34208D8A34200D0F5
:1030300095E00134E4B2A34200D262E7F6D93968E0
:10304000E2008C46121B920062449269002AF0D082
:103050002878904701343378E4B2A342E4D250E7B1
:103060003722002159482F78FFF7F0F91022FF216D
:103070005D48FFF7EBF955481222FF211330FFF7A7
:10308000E5F900F0CBFC534E514A00243378002A76
:1030900000D170E0554A9046524A9146A34245D825
:1030A00066D143463800984701343378E4B2A342EE
:1030B000F4D24F4B002B00D123E7FDF7A1F920E715
:1030C000424B37229846002118002F78FFF7BEF9AF
:1030D00043461022D81CFF21FFF7B8F940461222C0
:1030E000FF211330FFF7B2F900F098FC394E384A4F
:1030F00000243378002A35D03A4A91469C420CD3BA
:1031000036D13A4B3800984701343378E4B2A342C1
:10311000F4D242462B799370F3E64A461268E300F4
:1031200094461B1B9B0063445B68EBE74A461268AE
:10313000E30094461B1B9B0063445B68B2E70BB043
:103140003CBC90469946A246AB46F0BD6A792878C9
:10315000AB6800F081FCD4E6002B00D1D1E600235F
:103160009B69FFDE380000F0B3FD3378002BD0D030
:1031700000235B68FFDE380000F0AAFD3378002BE7
:1031800097D0F5E71B4B002B00D12BE71A480028FE
:1031900001D000F04DFC484608A900E000BF040043
:1031A000002C00D0ADE61DE7202B00D19AE0002BCB
:1031B00000D017E76B79092B00D913E70F4A9B0062
:1031C000D3589F46A00C00203C540010640C0020F3
:1031D000000000009C130020B94100101D040010E5
:1031E0000D040010C40B0020670C0020D13C00101F
:1031F00001040010000000000000000060540010F6
:103200007F22297A0A400292082A00D9EAE6C809F0
:103210000190002B00D182E0002453000293019A18
:10322000029B94464344C74A6344DB7C002A06D091
:10323000C54A1278934200D23BE19B1ADBB2002BC5
:1032400000D02DE1C148C24E00F0F2FB4846F368C1
:1032500008A99847002800D122E160222B791A4260
:1032600000D04EE6002000F0E3FB4AE6DA00D31A75
:10327000B84A9B001268D318002B00D15FE75C6945
:103280008CE62B7A0F2B00D9ACE6AE4A4344DB78B0
:10329000002A05D0AC4A127893425ED39B1ADBB267
:1032A000002B00D09EE6A948A94C00F0C1FB48467F
:1032B000E36808A99847002800D022E660221100A0
:1032C0002B7919401A4200D08CE66B790A2B00D07A
:1032D00088E606AB9A1C11700123484608A900F045
:1032E00041FB0EE62B7A0F2B00D97BE6954A43442F
:1032F000DB78002A06D0944A1278934200D202E189
:103300009B1ADBB2002B00D06CE69048904C00F08A
:103310008FFBE368484608A99847040040E76B79AB
:103320000393012B00D1D8E0032B00D1CBE0002B7D
:1033300000D057E65300019A0293944643446344F5
:1033400020335B7906AA9B07DB0F023213804846C5
:10335000022308A900F006FB61E77E4ADC00E31ABD
:1033600014689B00E418002C00D13BE620699CE720
:10337000EB88012B00D035E6434608221B789343A7
:103380004246484608A9137000F0D4FAB9E543460E
:103390000220197806AB9A1C8B0689080140DB0FC6
:1033A0000B4313804846022308A900F0DBFAA8E586
:1033B0004346AA7903925B78002B02D1002A00D001
:1033C000D0E04346039A484608A95A7000F0B2FA82
:1033D00097E5434606AA5B780232137048460123FC
:1033E00008A900F0BFFA8CE5EB88A8791B0A0F2B1F
:1033F00000D9F7E5584A9B00D3589F4608A800F02B
:103400001DFB4846A979FFF731FA434602221B7893
:1034100013434246137074E5EB88012B00D0E1E5BD
:10342000434608221B781343AAE74C4B002B00D1DC
:10343000D8E500E000BF040006AB9E1C0222A11CE0
:103440003000FFF709F822004846338808A900F049
:1034500089FA002800D054E5C4E5414B002B00D187
:10346000C0E500E000BF021E00D1BBE5484613786E
:1034700008A900F077FAECE72989FDF7A3F8021E06
:10348000F4D1AFE5FDF79AF8041ED5D1AAE5FDF712
:1034900091F81223020008A9484600F063FAD8E721
:1034A00060222B791A4200D07AE6002000F0C0FAA0
:1034B00076E6284ADE00F31A16689B00F618002EFE
:1034C000EED03069C0E6EB88002B27D05300029382
:1034D000484608A900F02EFAA1E6EB88002BF5D1AA
:1034E0004846FFF739FB019A029B94465B00029322
:1034F0004344634420335A790399B2435A715A7949
:103500008A435A71E4E7134ADC00E31A14689B000B
:10351000E418002C00D165E52069F8E64846FFF77D
:10352000F3FA019A02219446029B5B000293434402
:10353000634420335A790A435A715A7917435F71A9
:10354000C6E7C046000000009C130020393D001073
:10355000C8540010C40B0020885400100000000064
:1035600000000000501EC0B2FDF728F8002800D16E
:1035700038E54378022B00D034E50121C2790600FA
:10358000931152110B400A4012015B011343424652
:1035900012782F318A43134342461370C3788278DE
:1035A0001B021343C31809360493049BB34200D88B
:1035B00088E00023727802930B2A04D133780296B4
:1035C000F3181E005A78042A00D00BE5049B424AE7
:1035D0009B1B9BB20193414B00241B78002A10D106
:1035E0001CE09C4226D13E4B31004846019A984748
:1035F000002822D1394B01341B78E4B2A34200D217
:10360000F0E49C42EDD2374B1B680593059AE3002A
:1036100094461B1B9B0063449B68E5E731004846CA
:10362000019A00F067FB071E53D12C4B1B78002B2F
:1036300000D1D7E400239B68FFDE0700082F00D8E5
:10364000D0E4019BBB4200D2CCE44246B378D2180E
:10365000D178FF2900D0C5E4D470029A002A15D091
:1036600091781000994200D0BCE4127973799A42A3
:1036700000D0B7E4C278012A08D9023A04314144A3
:10368000D2B2080001322100FEF7E0FE7F213200B5
:1036900000238C465178052907D161469078014076
:1036A000490041441331C0090C5411785B189BB296
:1036B0005218BB42EED3094BF6191B78A34200D334
:1036C00073E78FE4084B002B00D17AE6FCF790FEFD
:1036D00077E6014CB2E7C046000000009C130020D2
:1036E000F53C0010C40B0020F103001030B585B08C
:1036F00005000C000C22002101A8FEF7A7FE6B4676
:103700001D715C71042C4BD005D8022C30D0032CD9
:1037100024D105B030BD052C20D12A4B1A78D20710
:10372000F7D504211A788A431A70274B1C68A269BE
:10373000EFF3108172B61368002BFCD0BFF35F8FDC
:10374000E161200001A900F01FFFA269E369BFF356
:103750005F8F0021116083F31088DAE71A4B1C6831
:10376000A269EFF3108172B61368002BE6D1FBE774
:103770000121144B1A788A431A701A780331A24334
:103780001A7000225A701A788A431A700E4B1C68FD
:10379000A269EFF3108172B61368002BCED1FBE75C
:1037A000084B1A78D207B4D504211A780A431A7044
:1037B000054B1C68A269EFF3108172B61368002BE9
:1037C000BCD1FBE7640C0020A00C0020002330B526
:1037D00085B001AD6B8028700633082202A86B709B
:1037E000FEF73AFE0C4B1C68A269EFF3108372B629
:1037F00011680029FCD0BFF35F8FE361290020002E
:1038000000F0C2FEA269E369BFF35F8F002111607F
:1038100083F3108805B030BDA00C0020F0B5C6467B
:10382000804600B584B001AC0F00160000210822CC
:1038300020001D00FEF70AFE434623700723637035
:103840000F4B65711D682771A660AA69EFF310839D
:1038500072B611680029FCD0BFF35F8FEB612100C5
:10386000280000F091FEAA69EB69BFF35F8F002189
:10387000116083F3108804B004BC9046F0BDC046CC
:10388000A00C002010B5FFF785F810BD70B57F249F
:103890000C4065000E4C06006419C8092418203439
:1038A00065790020ED0700D570BD012560792843BA
:1038B00060713000FFF712F90028F5D10122637919
:1038C000934363716379033293436371ECE7C046BA
:1038D000640C00207F22CB090A4004495200891859
:1038E000C91820314879C007C00F7047640C002008
:1038F00010B50C00FFF730F97F21022221404B0068
:103900000649E409C918091920314B7993434B71D1
:103910004B79013A93434B7110BDC046640C0020B3
:10392000034B10B5002B01D0FFF73EF910BDC04688
:10393000A92B001070B50A4E0500082230000C00BB
:10394000FEF78AFD002161560023C943C90F2800F4
:10395000F3600022C901B360FFF7C0F870BDC04634
:10396000C80B0020F8B5CE4647469046294E80B594
:103970008146082230000D001F00FEF76DFD434612
:10398000B3600023F381EC79AB7924021C43231C40
:10399000BC4200D93B1C9FB2B381002C12D0002F37
:1039A0001ED04346002B32D03B1C402F1ED89FB266
:1039B00033787F2B1FD80021174A3B004846FFF77A
:1039C0008DF809E0002169560023C943C90F002280
:1039D0004846C901FFF782F80CBC90469946F8BDED
:1039E00033787F2B10D980210022E6E740239FB255
:1039F00033787F2BDFD9084C3A0041462000FEF790
:103A00002BFD80212200D8E700210022D5E70020ED
:103A1000E2E7C046C80B0020240C002010B5142299
:103A200000210248FEF712FD10BDC046C80B002061
:103A3000014B18617047C046C80B002010B5054CFB
:103A4000010008222000FEF707FD0023A360E360C9
:103A500010BDC046C80B0020F8B5364D1C002B78B1
:103A60000600DA09C9098A420CD00027002C01D0CF
:103A70003800F8BD304B0137002BF9D02900FEF794
:103A80006DFFF5E77F2B06D8A868002837D0220005
:103A90002A49FEF7E1FCAB68EA8919191219EB888B
:103AA00092B2EA81A960934215D03F2C13D9AC8918
:103AB000A01A071C80B240282DD82B78BFB27F2BCC
:103AC0002BD80021A24233D01C4A3B003000FFF724
:103AD00005F80700CCE72B69002B04D02900300043
:103AE000984700280DD0002169560023C943C90F0B
:103AF00000223000C901FEF7F1FF0700B8E70027F8
:103B0000B6E700213000FEF7FFFF80213000FEF70E
:103B1000FBFF0127ACE74027CFE7A24207D0074CC5
:103B20003A002000FEF798FC80212200CDE780219A
:103B30000022CAE7C80B00205D290010240C0020D9
:103B4000F0B54746CE4680B590463C4A06000C008C
:103B5000002783B0002A5BD0394B207B5B68002BA9
:103B60002BD038490D881978083D5D195B18D97933
:103B70009F79090239435B189D421ED9002705E051
:103B8000197801375B18FFB29D4216D9597804297C
:103B9000F6D199788142F3D1002A08D0E3190021A7
:103BA0003000DB7B227AFCF703FD002805D03000D3
:103BB000217AFFF78FFE002805D0002003B00CBC4F
:103BC00090469946F0BD50239946A144484600F0DE
:103BD00003FC002822D1FD2263899200A5182A0047
:103BE0003000217AFFF752FE0028E6D04246638972
:103BF000138000236381144B002BDFD0237AE41958
:103C00001188E27B30000092002200E000BFD5E77F
:103C10000D4B002BA0D1002AC0D1C8E7FD239B008B
:103C2000E518021C622800D962222900484692B297
:103C300000F032FC03006081D1E7C046B1050010FE
:103C40001826002038520010000000008B23DB00F3
:103C5000584310B5054C23185B68002B04D0503036
:103C6000001900F0D3FC10BD0020FCE7182600204E
:103C70008B2270B5154C82B000212000D200FEF7D7
:103C8000E5FB012521002000260001236222683186
:103C90000095CC36503000F063FB3000FDF736FA6B
:103CA0002100200090226666EC31009592000123ED
:103CB000D43000F055FBCB239B00E5182800FDF71E
:103CC00025FAE823E55002B070BDC0461826002052
:103CD00010B5074C102200212000FEF7B7FB200092
:103CE000503000F011FD2000D43000F00DFD10BD6B
:103CF000182600204A79030010B50020012A02D1BD
:103D00008A79012A00D010BDCA79202AFBD10A790C
:103D1000012AF8D0CA78002AF5D1054A5468002C47
:103D2000F1D11370034B51601888083880B2EAE76C
:103D300018260020385200100B781F2270B504009E
:103D40001800904302000120202A00D070BDDB063D
:103D5000DB0E012B25D0022B2AD1344B0D79002B01
:103D600026D0334B5B68002B22D0324A10881A7859
:103D700018189B18DA799E79120232439B189842E0
:103D800004D815E01A789B18984211D95A78052A58
:103D9000F8D19A78AA42F5D12000274A00E000BF66
:103DA000D4E748790E79002804D0244A002A1FD18C
:103DB0000020CBE7224B002BFAD01D4B5D68002D75
:103DC000F6D01C4B1888083828188542F0D22B00F2
:103DD00003E01A789B189842EAD95A78042AF8D155
:103DE000AA78B242F5D12000134A00E000BFADE747
:103DF0000F4BC0B25B68002BDAD09A78B242D7D1B1
:103E00001A789B18DD799A792D0215435D1902E025
:103E1000DA78824205D01A789B189D42F8D80020A3
:103E200094E72000044AFCF769FB8FE700000000DC
:103E3000182600203852001028260020FD0400100B
:103E400000000000F0B5602345464E46DE4657466A
:103E5000E0B51D000A7880460E0085B0154013427B
:103E600000D095E04B780A2B00D1CBE00B2B00D093
:103E700090E00B799B46B74B5C689A46002C00D1CA
:103E800088E0082252429146B34B1B8899444B4626
:103E9000E2182378E418E379A1791B020B43E418B4
:103EA000A24277D90027594605E023780137E41864
:103EB000FFB2A2426ED96378042BF6D1A3788B426D
:103EC000F3D1F378B2781B021343019353461B7B63
:103ED0008B468B4200D107E153469B7B5B4500D16B
:103EE00017E16B461A7953465B6857444B44FA73A3
:103EF0001F00A34200D8B0E0594604E02378E4183C
:103F0000A74200D8A9E06378042BF7D1A3788B42AD
:103F1000F4D1E3789342F1D123798B469946002B73
:103F200000D19AE0BC4235D22378E418A94500D8E4
:103F300091E0A7422ED96378052BF5D121004046A8
:103F4000FFF7A0FC002825D0A37840461900019374
:103F5000FFF7CEFC019BDB09012B00D10CE153469E
:103F6000019A5A735A469A737C4B002B05D0310044
:103F70004046FCF703FB00280CD0C0234046784A9B
:103F80000199FFF783FC002804D00135EDB2CBE79F
:103F9000202D07D0002005B03CBC90469946A24693
:103FA000AB46F0BD4B7908791B02D1060343C90E1D
:103FB000012958D00229EDD1664B5B68002BE9D06E
:103FC00065490C8819781C195B18D9799D79090203
:103FD00029435B189C4204D8DCE719785B189C42A3
:103FE000D8D959780529F8D199788142F5D152B2BA
:103FF000002A00DAA5E0402331004046594AFFF785
:10400000B1FCC8E7534B08799A465B68002BC1D0D6
:10401000514A11881A78083959189B18DA799C790D
:10402000120222439B18994206D8B3E71A78013549
:104030009B18EDB29942ADD95A78042AF6D19A78F4
:104040008242F3D12A000F3201233100404652440C
:10405000FFF788FC9FE7A9459CD131004046FFF758
:1040600069FC012097E71B0A19D03A49DBB249687D
:10407000002900D18EE78C78844200D08AE7087846
:104080000918CC798879240204430C1902E0C87815
:10409000984249D0087809188C42F8D87AE72D4B15
:1040A0005D68002D00D175E72B4B1C88083C2C194E
:1040B000A54200D36EE72B0004E019785B189C4200
:1040C00000D867E759780429F7D1A9788142F4D15B
:1040D00052B2002A8FDA244B002B00D15AE731006C
:1040E000404600E000BF56E70023524640461373A7
:1040F000117AFFF715FC1D4B002B06D0310040460E
:10410000FCF72CFA002800D144E700235246137232
:10411000E2E652460023517B93734046FFF700FCD2
:10412000524600235373DCE652B2002A00DB62E7FA
:104130000F4B002B00D12DE731004046FCF776F9FC
:1041400029E70C4B002B00D124E73100404600E06A
:1041500000BF20E718260020385200107D0500100F
:104160004C29002028260020000000005D050010DA
:104170002D040010000000003022E3781A4200D025
:1041800003E75346019A1A725A461A73094B002BD9
:1041900006D031004046FCF7F1F9002800D1F9E6DD
:1041A00002AB514640469A1DFFF7CAFC002800D0DA
:1041B000EBE6EFE67D050010F0B50C0016490500B2
:1041C0000A7A83B0A24222D04A7BA24202D19EB296
:1041D0009B0702D0002003B0F0BDCD239B00CF1879
:1041E000D43108003200390000F010FA0B4B002BDC
:1041F00006D0320039002800FCF7CEF90028E9D0BB
:10420000C02321002800064AFFF740FBE3E76B4686
:104210009A1DFFF795FCDEE718260020990500108F
:104220004C290020F8B5CE4647460C7806000D0014
:104230009146002080B57F2C37D94A790F79120238
:10424000E4063A43E40E012C35D0022C2DD1364A37
:104250005468002C29D0354A128894462278A44408
:10426000A418A27990464146E27912020A43A418A2
:10427000A44504D819E02278A418A44519D9627875
:10428000052AF8D1A278BA42F5D11C1C402B31D8AE
:10429000274FA4B2220049463800FEF7DDF823007C
:1042A0003A0029003000FFF75DFB0CBC90469946B0
:1042B000F8BD0020F9E7120A1ED01B4CD2B2646888
:1042C0009446002CF1D0A278BA42EED12778E419B6
:1042D000E779A2793F0217432278E719A418A74289
:1042E00004D8E2E720782418A742E2D9E0786045B4
:1042F000F8D1CAE74024CBE70B4A5468002CD4D04D
:104300000A4A1288083AA2189442CED2200004E049
:1043100001788C4660448242CBD941780429F7D198
:10432000A178B942F4D1B0E7182600203852001025
:104330002826002070B5064D2C78002C01D02000D6
:1043400070BDFEF775FD0028F9D001232B70F6E74C
:104350009D130020014B18787047C0469D13002024
:10436000F0B5C64600B5140006AA1E0013788022D8
:1043700005000F009846120294422BD8406900288D
:104380001AD00121494200F097FE4346AC806400F8
:10439000A4B22B72631EAB81002368696442EB8177
:1043A0002F60EE806C812B82002811D000F064FE1B
:1043B000012004BC9046F0BDAC806400A4B22B7216
:1043C000631E6442E8812960EE80AB816C812882A3
:1043D0000120EEE70020ECE710B5C489018A020055
:1043E000601A80B28C4202D25389C01A80B210BDCA
:1043F000F8B5040040690E00002803D001214942AD
:1044000000F05AFEE589208AA9B22A1A83B292B234
:10441000854202D26089121A92B2A088A78990427E
:1044200005D20A1ABA422BDC92B222820200002A7A
:104430002ED0BB4206D961895B189BB2984203D843
:104440001B1A9BB29842FBD9E28821685343300083
:10445000C918FEF701F8012501200122A789218A48
:104460008BB20918B94210DD61895B18D3189BB271
:1044700060692382002801D000F0FEFD2800F8BD0D
:10448000628982188A1A92B2CFE79B189BB2EFE733
:1044900000200025E3E7C046F0B5C64604004069A9
:1044A0008846170000B5002803D00121494200F0DA
:1044B00003FEE089218A82B2451A8BB2ADB28842EE
:1044C00002D261896D1AADB2A688A089AE4207D228
:1044D000931B834236DC9BB235002382238A9BB236
:1044E000002D39D03A1CAF4231D895B2834205D95C
:1044F00061895B189BB201E09B1B9BB29E42FBD97A
:104500005A192F00E188B24228DC0A005943236877
:1045100040469C466A436144FDF79EFFA089228A7B
:10452000D71993B2874214DD62899B18EB189BB2AE
:1045300060692382002801D000F09EFD280004BCA1
:104540009046F0BD6389F318D31A9BB2C4E72A1CC6
:10455000CBE75B199BB2EBE70027E0E7F61AB6B2B0
:1045600032004A435943236840469C466144FDF764
:1045700073FFE388AA1B180070435A432168404424
:10458000FDF76AFFA089CAE7F8B5040040690E008C
:10459000002803D00121494200F08EFDE289218AE2
:1045A00095B2531A9BB2914202D962899B1A9BB26F
:1045B000A2889A4226D0A1892B00A94206D26389FB
:1045C000EB189BB29A4203D89B1A9BB29A42FBD932
:1045D000E28821685343C8183100FDF73DFFA389E5
:1045E000AB420AD90135ADB260690127E5810028E7
:1045F00001D000F041FD3800F8BD6389ED180135A8
:10460000ADB2F1E7277A002FD5D1F4E7F8B54746E8
:10461000CE46040080B515000F00002A52D0406934
:10462000002803D00121494200F046FDE689237AA3
:10463000208AA188B6B280B2002B38D1331A9BB23F
:10464000864202D262899B1A9BB2CB1A1A1C9BB279
:10465000AB4252D893B298461D00E288A08933003D
:10466000B04205D26389F3189BB201E05B1A9BB29A
:104670008B42FBD2581988422ADC534321686A4393
:10468000C8183900FDF7E8FEA38975199D421CDDA5
:104690006389F6184644B6B26069E681002801D005
:1046A00000F0EAFC40460CBC90469946F8BDA8468E
:1046B000E288A942D2D26D1A554388467F19E0811B
:1046C0000D00CBE700239846ECE74644B6B2E3E79B
:1046D000C91A89B2894653432168C8184B46390024
:1046E0005A43FDF7B9FE4B46E188EA1A4A4359435B
:1046F00020687918FDF7B0FEC6E72A1C93B29846E9
:104700001D00E288AAE7C04610B5040040690028F1
:104710000DD00121494200F0CFFC00236069E38104
:104720002382002801D000F0A7FC012010BDE08109
:104730002082FAE710B5FBF783FF1920FBF79CFFF7
:10474000D02380221B0692045A6210BDD0238022FF
:104750001B069204002801D05A6170479A61FCE759
:10476000030010B50A0003490868190000F004F8B6
:1047700010BDC0461C03002010B5514300F034F8B2
:10478000041E0ED00300083B5A6803239A43043AE0
:10479000242A15D80300132A05D800221A605A606B
:1047A0009A60200010BD00210833016041601B2A7F
:1047B000F3D98160C160242A06D003001033ECE7EE
:1047C0000021FDF743FEECE703000161183341616E
:1047D000E3E7C04610B5034B0100186800F004F889
:1047E00010BDC0461C030020F0B54E464546DE46CF
:1047F0005746E0B50D000B35060083B0162D22D8C4
:10480000102900D9B2E000F0AFFA102502201823D9
:10481000CB4FFB181A005C68083A944200D1B5E00F
:10482000032362689A431300E268A168CA6091603A
:104830000122E318596830000A435A6000F09CFADC
:104840002000083095E007239D4300D58EE0A94263
:1048500000D98BE000F088FAFC235B009D4200D277
:10486000A5E1680A00D18BE0042800D978E138235B
:104870009846A80980443930C100B14F79184C6876
:104880000839A1420ED003239C4604E0002ACBDA6B
:10489000E468A14206D06246636893435A1B0F2A1C
:1048A000F4DD40463A003C690832944200D178E099
:1048B00003236168994389460B00491B0F2900DDDA
:1048C00079E17A613A610029B2DA80229200914559
:1048D00000D30EE15909DA0801238B40D200796830
:1048E000D2190B4391687B60E260A1609460CC6058
:1048F000012182109140994259D80B4205D10322DF
:104900009043490004300B42FBD003239846C30078
:104910009946B944CC4682466346DC68A44507D133
:104920002AE1002A00DB33E1E468A44500D123E159
:104930004246636893435A1B0F2AF2DD01208046EA
:10494000611905436560A068E5680837C560A8601F
:1049500040461043F960B9604860CF6030008F6016
:10496000E25000F009FA2000083002E00C23002099
:10497000336003B03CBC90469946A246AB46F0BDBE
:1049800080213F2340209846890076E7DC6802308A
:10499000A34200D044E73A003C690832944200D078
:1049A00086E701217B68821091409942A5D90323B3
:1049B000BC6862689A439146954203D8531B0F2BFB
:1049C00000DD88E023004B445E4A01935E4B934632
:1049D0001B681268EB18013200D13BE15B4A944638
:1049E00063441B0B1B0300933000009900F0CCF9CB
:1049F00003008046013300D1F8E0019B834200D9D7
:104A0000F2E0534B19009A460968009B8C465146C8
:104A100063440B6001991A00814200D150E15B466A
:104A20001B68013300D155E1434601995B1A9A187E
:104A300053461A600723424641461A4001921942E2
:104A400000D111E108239846881A424B009980440E
:104A500041449B1A5B1A1B051B0D00913000190085
:104A60009B4600F091F9431C00D14FE14346C01A28
:104A700003005B440093534652461B6801215B448C
:104A8000136042464046BA60009A0A434260BC4204
:104A900000D123E14A460F2A00D821E107200C3A31
:104AA000824360680140052011436160A11848609D
:104AB00088600F2A00D934E14246444652682649AC
:104AC0000868984200D20B6024490868984200D3D5
:104AD0008EE00B608CE0012229001343114365191D
:104AE00061603000BD606B6000F046F92000083066
:104AF0003FE75A0A042A71D9142A00D9C4E01100E8
:104B00005C325B31D20008235B429C46BA18944465
:104B100063469A6803239846944500D19DE0434636
:104B200051689943494502D992689445F7D1D368B1
:104B30009C467B686146A260E1608C60D460D7E6E9
:104B400048070020500B0020C00B00200F10000071
:104B5000900B002008100000B80B0020BC0B0020B8
:104B6000142852D9542800D996E06E239846280B71
:104B700080446F30C10080E608239B46073BDC443D
:104B80009B46DA4443465246134200D0C4E64CE00A
:104B90000122E318596830000A435A60E368A268AA
:104BA000D3609A6000F0E8F820000830E1E62B00BE
:104BB000E80808332CE6012360191D43656078611D
:104BC0003861C26082601A004B460A43426030007E
:104BD000E15000F0D1F820000830CAE69A0911002F
:104BE00039323831D2008EE7BC4260D0BC6862688E
:104BF00003239A43531B954202D80F2B00DD6AE72B
:104C0000300000F0B9F80020B3E65B2398468044FA
:104C10005C30C10031E608235B429C46E1444B46D0
:104C20009B6801384B4500D098E043460342F2D1DF
:104C30007B688B437B604900994200D9B7E6002925
:104C400004D1B4E6042294464900E2440B42F9D070
:104C500050465CE610330093C6E68910023B8B4059
:104C600079680B437B6065E7009B300043445B42FF
:104C70001B051B0D19009B4600F086F8431C00D055
:104C8000F4E600239B46F6E6542A2BD81A0B1100B3
:104C90006F326E31D20036E7AA235B0098422BD8E0
:104CA000DD3B9846E80B80447830C100E5E52C4BAD
:104CB000009A9A461B689C46534662441A60AEE6C8
:104CC000090500D0ABE6009ABC684A4401310A43AA
:104CD0006260F4E65B4642461A60ABE64446EEE6A6
:104CE00041608DE7AA2149008A4224D8DA0B1100DD
:104CF00078327731D20006E71A4B984224D87C23C9
:104D00009846A80C80447D30C100B6E5009A019B0E
:104D100094464246083B63449B1A009300239B46FB
:104D2000A9E621003000083100F0BCF85346BC6809
:104D30001B686268C3E60B498A420BD89A0C1100C3
:104D40007D327C31D200DEE6FE217E237F20984634
:104D5000890092E5FE227E219200D4E67B686AE714
:104D6000900B00205405000010B5024800F07CF9BB
:104D700010BDC046802A002010B5024800F076F928
:104D800010BDC046802A0020002370B5064D0400E7
:104D900008002B60FCF74EFC431C00D070BD2B6854
:104DA000002BFBD02360F9E7942A002010B583077D
:104DB0000AD00300032102E001330B4205D01A7828
:104DC000002AF9D1181A10BD030019680C4A0D4CBD
:104DD0008A188A4322420FD15968094A04338A1833
:104DE0008A43224208D15968054A04338A188A4303
:104DF0002242F1D000E001331A78002AFBD1E1E72A
:104E0000FFFEFEFE80808080F8B50C000500FFF7F5
:104E1000ABFF204FBB685E6803239E431E4B341BD1
:104E20009C466444240B013C113324039C4207DB61
:104E300000212800FFF7A8FFBB689B19984204D007
:104E40002800FFF799FF0020F8BD28006142FFF716
:104E50009BFF431C0DD00122BB68361B16435E60CE
:104E60000E4B28001A68141B1C60FFF785FF0120F9
:104E7000EAE700212800FFF787FFBA68831A0F2BA3
:104E8000DEDD07490968401A0449086001210B4327
:104E90005360D5E748070020EF0F0000900B00207B
:104EA000500B0020F0B5C64605000C0000B50029E7
:104EB0004FD0FFF759FF210008394C680126220026
:104EC0000320B2438F187B68834362489846836807
:104ED000BB426BD043467B6026421ED108239C46D2
:104EE0000C688444091B12198C6864454FD0CB6848
:104EF000E3609C604346FC186468344211D1BB688F
:104F0000554C4244A34200D17FE0FC68DC60A360C2
:104F1000012313434B608A5006E0FC186468344256
:104F2000EDD016434E603A6080239B009A4213D224
:104F30005409D3080122A2404468DB0022434260A6
:104F400018188368C8608B608160D9602800FFF7FB
:104F500013FF04BC9046F0BD530A042B3FD89409BC
:104F6000260039343836E40004192368083C032746
:104F70009C4243D05868B843904202D99B689C42F7
:104F8000F8D1DC68CC608B60A160D960DEE7434675
:104F9000F8184068304258D11300B868FA684344A2
:104FA0001E43C26090604E60CB50CFE71300434475
:104FB000264206D10A68891A8C689B18CA68E26082
:104FC000946001221A434A60244A816012689A421E
:104FD000BCD8234B28001968FFF716FFB6E7142B3F
:104FE00007D9542B1AD8140B26006F346E36E40000
:104FF000BAE71E005C335B36DC00B5E70122B61071
:10500000B240466832434260BCE7D9609960CB60E9
:105010008B60012313434B608A5097E7AA246400F6
:10502000A34205D8D40B260078347736E4009BE7FA
:105030000C4CA34205D8940C26007D347C36E40049
:1050400092E7FE247E26A4008EE7330013434B60D4
:105050003A607BE74807002050070020540B0020EF
:10506000C00B0020540500007047C0467047C04682
:10507000F8B5C0460000000001B40248844601BCF7
:10508000604700BFF501002001B40248844601BC1E
:10509000604700BF1D02002001B40248844601BCE5
:1050A000604700BF1D02002001B40248844601BCD5
:1050B000604700BF1101002001B40248844601BCD2
:1050C000604700BF5D01002001B40248844601BC76
:0850D000604700BFC100002091
:1050D800010080BB000080BB000000000000000051
:1050E800010000CE0000000154696E79555342005A
:1050F80054696E795553422068656164736574001C
:10510800303030303031000054696E7955534220C8
:10511800537065616B6572730000000054696E79A5
:10512800555342204D6963726F70686F6E65000059
:10513800090400000902E500030100A032080B0081
:1051480003010020000904000000010120020924D5
:10515800010002045D000008240A04030500001190
:105168002402010101000402000000000000000008
:1051780012240602010F0000000F0000000F0000BB
:1051880000000C24030301030002040000001124A2
:105198000211010200040100000000000000000CE0
:1051A8002403130101001104000000090401000098
:1051B8000102200509040101010102200510240152
:1051C80001000101000000020000000000062402A6
:1051D80001021007050109C00001082501000001AE
:1051E800010009040200000102200409040201016F
:1051F8000102200410240113000101000000010035
:105208000000000006240201021007058105620063
:105218000108250100000000000000001201000242
:10522800EF020140FECA1040000101020301000024
:10523800DC0000004E6F207370696E6C6F636B73D7
:105248002061726520617661696C61626C6500003D
:10525800486172647761726520616C61726D2025A6
:105268006420616C726561647920636C61696D6545
:10527800640000000A2A2A2A2050414E4943202A65
:105288002A2A0A000A0000004861726420617373C8
:105298006572740052656C6561736500687474703A
:1052A800733A2F2F6769746875622E636F6D2F725A
:1052B800617370626572727970692F7069636F2D9E
:1052C8006578616D706C65732F747265652F4845DC
:1052D80041442F7573622F6465766963652F646531
:1052E800765F617564696F5F686561647365740092
:1052F800312E302E300000007069636F000000000E
:105308006465765F617564696F5F6865616473651C
:105318007400000046656220313620323032310098
:1053280006005250BBFF3CB6005300100600525016
:105338009A235618A452001006005250D3F0754212
:105348009C5200100D0A0000554152542073746499
:10535800696E000055415254207374646F7574006F
:105368005541525420737464696E202F20737464FD
:105378006F7574000600525053B4F4A168530010BE
:105388000800525092000000556E68616E646C65AA
:10539800642049525120307825780A0049736F6398
:1053A80068726F6E6F757320774D61785061636BAB
:1053B800657453697A6520256420746F6F206C6169
:1053C80072676500657020256420257320776173F6
:1053D80020616C726561647920617661696C6162D3
:1053E8006C65000043616E277420636F6E74696E8C
:1053F80075652078666572206F6E20696E616374CA
:1054080069766520657020256420257300000000FA
:105418005472616E73666572726564206D6F726531
:105428002064617461207468616E206578706563BA
:1054380074656400022F0010C03000106030001046
:105448001830001002300010F62F0010A62F0010A0
:10545800542F0010482F00108E33001070330010A6
:10546800E42F001018340010E42F0010FC33001053
:10547800E8330010E42F0010D2330010B0330010CE
:10548800E42F00108E34001084340010783400109B
:10549800E42F0010E42F00105A340010E42F0010FD
:1054A800E42F0010E42F0010E42F0010E42F001068
:1054B800E42F0010E42F0010E42F00102A3400100D
:1054C800713C0010D13C0010F53C0010453E001026
:0C54D800393D0010B94100100000000038
:1054E400E8010010DC010010D00100102853001066
:1054F400C401001034530010405300107C530010BA
:0455040088530010B8
:1055080010B502680024EFF3108172B61368002BFF
:10551800FCD0BFF35F8F0379002B0BD00368BFF378
:105528005F8F1C6081F3108820BF0268EFF3108141
:1055380072B6EBE701220271D0221206126842719C
:105548000268BFF35F8F136081F3108810BDC046F7
:10555800030010B50068EFF3108472B60268002AE1
:10556800FCD0BFF35F8F1A79002A0DD0002913D021
:10557800052200209A560A601B68BFF35F8F00223D
:105588001A6084F3108810BD01321A71D0221206F5
:10559800126801205A71EFE70020EDE7F0B5C64622
:1055A80000B50C00804600F06BF8FA2206000F00E8
:1055B800200000230021920000F052F88019794160
:1055C80004000D008F4231D82ED0002643461B68B8
:1055D800EFF3108272B619680029FCD0BFF35F8F11
:1055E80043461B79002B0ED043461B68BFF35F8FE1
:1055F8001E6082F310882000290000F039F8002886
:10560800E4D000200DE0404601210171D0210906B7
:10561800096841710168BFF35F8F0B6082F31088DE
:10562800012004BC9046F0BD8642CED901246442D4
:10563800E517CAE70268EFF3108172B61368002B0A
:10564800FCD0BFF35F8F0023037140BF0268BFF334
:105658005F8F136081F310887047C0467047C0465B
:1056680001B40248844601BC604700BF69230010AA
:1056780001B40248844601BC604700BF450E0010D3
:1056880001B40248844601BC604700BF590F0010AE
:10569800FA00000038510010F0500010F8500010C7
:1056A8000851001010510010245100101000000083
:1056B80000000000000001000000000000000000E1
:1056C80000000200000000000000000000000300CD
:1056D80000000000000000000000FF0000000000C3
:1056E80000B5486801318E460047704609380149BF
:1056F800884700BD6D1C001000000000000000007D
:10570800503300004C330000543300005233000083
:105718004D5300004D430000533400004334000053
:105728007D26001000000000B926001000000000CF
:10573800000100007853001058530010582500202D
:1057480010000C0000000000000000000000000035
:1057580000000000000000000000000020030020FE
:10576800000000000C06002074060020DC06002063
:105778000000000000000000000000000000000021
:105788000000000000000000000000000000000011
:105798000000000000000000000000000000000001
:1057A80000000000000000000000000000000000F1
:1057B80000000000000000000000000000000000E1
:1057C80000000000000000000000000000000000D1
:1057D80000000000000000000000000000000000C1
:1057E80000000000000000000000000000000000B1
:1057F80000000000000000000000000000000000A1
:10580800000000000000000001000000000000008F
:105818000E33CDAB34126DE6ECDE05000B00000054
:105828000000000000000000000000000000000070
:105838000000000000000000000000000000000060
:105848000000000000000000000000000000000050
:105858000000000000000000000000000000000040
:105B98004807002048070020500700205007002031
:105BA80058070020580700206007002060070020E1
:105BB8006807002068070020700700207007002091
:105BC8007807002078070020800700208007002041
:105BD80088070020880700209007002090070020F1
:105BE8009807002098070020A0070020A0070020A1
:105BF800A8070020A8070020B0070020B007002051
:105C0800B8070020B8070020C0070020C007002000
:105C1800C8070020C8070020D0070020D0070020B0
:105C2800D8070020D8070020E0070020E007002060
:105C3800E8070020E8070020F0070020F007002010
:105C4800F8070020F80700200008002000080020BE
:105C5800080800200808002010080020100800206C
:105C6800180800201808002020080020200800201C
:105C780028080020280800203008002030080020CC
:105C8800380800203808002040080020400800207C
:105C9800480800204808002050080020500800202C
:105CA80058080020580800206008002060080020DC
:105CB800680800206808002070080020700800208C
:105CC800780800207808002080080020800800203C
:105CD80088080020880800209008002090080020EC
:105CE8009808002098080020A0080020A00800209C
:105CF800A8080020A8080020B0080020B00800204C
:105D0800B8080020B8080020C0080020C0080020FB
:105D1800C8080020C8080020D0080020D0080020AB
:105D2800D8080020D8080020E0080020E00800205B
:105D3800E8080020E8080020F0080020F00800200B
:105D4800F8080020F80800200009002000090020B9
:105D58000809002008090020100900201009002067
:105D68001809002018090020200900202009002017
:105D780028090020280900203009002030090020C7
:105D88003809002038090020400900204009002077
:105D98004809002048090020500900205009002027
:105DA80058090020580900206009002060090020D7
:105DB8006809002068090020700900207009002087
:105DC8007809002078090020800900208009002037
:105DD80088090020880900209009002090090020E7
:105DE8009809002098090020A0090020A009002097
:105DF800A8090020A8090020B0090020B009002047
